{
	"multi-send-eth.sol": {
		"MultiSendETH": {
			"abi": [
				{
					"stateMutability": "payable",
					"type": "fallback"
				},
				{
					"inputs": [
						{
							"internalType": "address",
							"name": "",
							"type": "address"
						}
					],
					"name": "balances",
					"outputs": [
						{
							"internalType": "uint256",
							"name": "",
							"type": "uint256"
						}
					],
					"stateMutability": "view",
					"type": "function"
				},
				{
					"inputs": [],
					"name": "getBalanceAccount",
					"outputs": [
						{
							"internalType": "uint256",
							"name": "",
							"type": "uint256"
						}
					],
					"stateMutability": "view",
					"type": "function"
				},
				{
					"inputs": [],
					"name": "getBalanceContract",
					"outputs": [
						{
							"internalType": "uint256",
							"name": "",
							"type": "uint256"
						}
					],
					"stateMutability": "view",
					"type": "function"
				},
				{
					"inputs": [
						{
							"internalType": "uint256[]",
							"name": "_amount",
							"type": "uint256[]"
						}
					],
					"name": "getSum",
					"outputs": [
						{
							"internalType": "uint256",
							"name": "",
							"type": "uint256"
						}
					],
					"stateMutability": "view",
					"type": "function"
				},
				{
					"inputs": [],
					"name": "sendEth",
					"outputs": [],
					"stateMutability": "payable",
					"type": "function"
				},
				{
					"inputs": [
						{
							"internalType": "address payable[]",
							"name": "_to",
							"type": "address[]"
						},
						{
							"internalType": "uint256[]",
							"name": "_amount",
							"type": "uint256[]"
						}
					],
					"name": "transferDiffETH",
					"outputs": [],
					"stateMutability": "payable",
					"type": "function"
				},
				{
					"inputs": [
						{
							"internalType": "address payable",
							"name": "_to",
							"type": "address"
						},
						{
							"internalType": "uint256",
							"name": "_amount",
							"type": "uint256"
						}
					],
					"name": "transferETH",
					"outputs": [],
					"stateMutability": "payable",
					"type": "function"
				},
				{
					"inputs": [
						{
							"internalType": "address payable[]",
							"name": "_to",
							"type": "address[]"
						},
						{
							"internalType": "uint256",
							"name": "_amount",
							"type": "uint256"
						}
					],
					"name": "transferFixedETH",
					"outputs": [],
					"stateMutability": "payable",
					"type": "function"
				},
				{
					"stateMutability": "payable",
					"type": "receive"
				}
			],
			"devdoc": {
				"kind": "dev",
				"methods": {},
				"version": 1
			},
			"evm": {
				"assembly": "    /* \"multi-send-eth.sol\":173:1949  contract MultiSendETH{... */\n  mstore(0x40, 0x80)\n  callvalue\n  dup1\n  iszero\n  tag_1\n  jumpi\n  0x00\n  dup1\n  revert\ntag_1:\n  pop\n  dataSize(sub_0)\n  dup1\n  dataOffset(sub_0)\n  0x00\n  codecopy\n  0x00\n  return\nstop\n\nsub_0: assembly {\n        /* \"multi-send-eth.sol\":173:1949  contract MultiSendETH{... */\n      mstore(0x40, 0x80)\n      jumpi(tag_1, lt(calldatasize, 0x04))\n      shr(0xe0, calldataload(0x00))\n      dup1\n      0x66bd78fd\n      gt\n      tag_11\n      jumpi\n      dup1\n      0x66bd78fd\n      eq\n      tag_7\n      jumpi\n      dup1\n      0x7b1a4909\n      eq\n      tag_8\n      jumpi\n      dup1\n      0xabf038d0\n      eq\n      tag_9\n      jumpi\n      dup1\n      0xccb8c1e0\n      eq\n      tag_10\n      jumpi\n      jump(tag_2)\n    tag_11:\n      dup1\n      0x06e99fef\n      eq\n      tag_3\n      jumpi\n      dup1\n      0x27e235e3\n      eq\n      tag_4\n      jumpi\n      dup1\n      0x4e6e9ee1\n      eq\n      tag_5\n      jumpi\n      dup1\n      0x661978ed\n      eq\n      tag_6\n      jumpi\n      jump(tag_2)\n    tag_1:\n      jumpi(tag_2, calldatasize)\n      stop\n    tag_2:\n      stop\n        /* \"multi-send-eth.sol\":283:392  function sendEth() public payable {... */\n    tag_3:\n      tag_16\n      tag_17\n      jump\t// in\n    tag_16:\n      stop\n        /* \"multi-send-eth.sol\":233:276  mapping(address => uint256) public balances */\n    tag_4:\n      callvalue\n      dup1\n      iszero\n      tag_18\n      jumpi\n      0x00\n      dup1\n      revert\n    tag_18:\n      pop\n      tag_19\n      0x04\n      dup1\n      calldatasize\n      sub\n      dup2\n      add\n      swap1\n      tag_20\n      swap2\n      swap1\n      tag_21\n      jump\t// in\n    tag_20:\n      tag_22\n      jump\t// in\n    tag_19:\n      mload(0x40)\n      tag_23\n      swap2\n      swap1\n      tag_24\n      jump\t// in\n    tag_23:\n      mload(0x40)\n      dup1\n      swap2\n      sub\n      swap1\n      return\n        /* \"multi-send-eth.sol\":1086:1421  function transferFixedETH(address payable[] calldata _to, uint256 _amount) public payable{... */\n    tag_5:\n      tag_25\n      0x04\n      dup1\n      calldatasize\n      sub\n      dup2\n      add\n      swap1\n      tag_26\n      swap2\n      swap1\n      tag_27\n      jump\t// in\n    tag_26:\n      tag_28\n      jump\t// in\n    tag_25:\n      stop\n        /* \"multi-send-eth.sol\":1427:1877  function transferDiffETH(address payable[] calldata _to, uint256[] calldata _amount) public payable{... */\n    tag_6:\n      tag_29\n      0x04\n      dup1\n      calldatasize\n      sub\n      dup2\n      add\n      swap1\n      tag_30\n      swap2\n      swap1\n      tag_31\n      jump\t// in\n    tag_30:\n      tag_32\n      jump\t// in\n    tag_29:\n      stop\n        /* \"multi-send-eth.sol\":398:501  function getBalanceContract() public view returns(uint256){... */\n    tag_7:\n      callvalue\n      dup1\n      iszero\n      tag_33\n      jumpi\n      0x00\n      dup1\n      revert\n    tag_33:\n      pop\n      tag_34\n      tag_35\n      jump\t// in\n    tag_34:\n      mload(0x40)\n      tag_36\n      swap2\n      swap1\n      tag_24\n      jump\t// in\n    tag_36:\n      mload(0x40)\n      dup1\n      swap2\n      sub\n      swap1\n      return\n        /* \"multi-send-eth.sol\":839:1080  function transferETH(address payable _to, uint256 _amount) public payable {... */\n    tag_8:\n      tag_37\n      0x04\n      dup1\n      calldatasize\n      sub\n      dup2\n      add\n      swap1\n      tag_38\n      swap2\n      swap1\n      tag_39\n      jump\t// in\n    tag_38:\n      tag_40\n      jump\t// in\n    tag_37:\n      stop\n        /* \"multi-send-eth.sol\":507:608  function getBalanceAccount() public view returns(uint256){... */\n    tag_9:\n      callvalue\n      dup1\n      iszero\n      tag_41\n      jumpi\n      0x00\n      dup1\n      revert\n    tag_41:\n      pop\n      tag_42\n      tag_43\n      jump\t// in\n    tag_42:\n      mload(0x40)\n      tag_44\n      swap2\n      swap1\n      tag_24\n      jump\t// in\n    tag_44:\n      mload(0x40)\n      dup1\n      swap2\n      sub\n      swap1\n      return\n        /* \"multi-send-eth.sol\":614:833  function getSum(uint256[] calldata _amount) public view returns(uint256){... */\n    tag_10:\n      callvalue\n      dup1\n      iszero\n      tag_45\n      jumpi\n      0x00\n      dup1\n      revert\n    tag_45:\n      pop\n      tag_46\n      0x04\n      dup1\n      calldatasize\n      sub\n      dup2\n      add\n      swap1\n      tag_47\n      swap2\n      swap1\n      tag_48\n      jump\t// in\n    tag_47:\n      tag_49\n      jump\t// in\n    tag_46:\n      mload(0x40)\n      tag_50\n      swap2\n      swap1\n      tag_24\n      jump\t// in\n    tag_50:\n      mload(0x40)\n      dup1\n      swap2\n      sub\n      swap1\n      return\n        /* \"multi-send-eth.sol\":283:392  function sendEth() public payable {... */\n    tag_17:\n        /* \"multi-send-eth.sol\":350:385  balances[msg.sender].add(msg.value) */\n      tag_52\n        /* \"multi-send-eth.sol\":375:384  msg.value */\n      callvalue\n        /* \"multi-send-eth.sol\":350:358  balances */\n      0x00\n        /* \"multi-send-eth.sol\":350:370  balances[msg.sender] */\n      dup1\n        /* \"multi-send-eth.sol\":359:369  msg.sender */\n      caller\n        /* \"multi-send-eth.sol\":350:370  balances[msg.sender] */\n      0xffffffffffffffffffffffffffffffffffffffff\n      and\n      0xffffffffffffffffffffffffffffffffffffffff\n      and\n      dup2\n      mstore\n      0x20\n      add\n      swap1\n      dup2\n      mstore\n      0x20\n      add\n      0x00\n      keccak256\n      sload\n        /* \"multi-send-eth.sol\":350:374  balances[msg.sender].add */\n      tag_53\n      swap1\n        /* \"multi-send-eth.sol\":350:385  balances[msg.sender].add(msg.value) */\n      swap2\n      swap1\n      0xffffffff\n      and\n      jump\t// in\n    tag_52:\n        /* \"multi-send-eth.sol\":327:335  balances */\n      0x00\n        /* \"multi-send-eth.sol\":327:347  balances[msg.sender] */\n      dup1\n        /* \"multi-send-eth.sol\":336:346  msg.sender */\n      caller\n        /* \"multi-send-eth.sol\":327:347  balances[msg.sender] */\n      0xffffffffffffffffffffffffffffffffffffffff\n      and\n      0xffffffffffffffffffffffffffffffffffffffff\n      and\n      dup2\n      mstore\n      0x20\n      add\n      swap1\n      dup2\n      mstore\n      0x20\n      add\n      0x00\n      keccak256\n        /* \"multi-send-eth.sol\":327:385  balances[msg.sender] = balances[msg.sender].add(msg.value) */\n      dup2\n      swap1\n      sstore\n      pop\n        /* \"multi-send-eth.sol\":283:392  function sendEth() public payable {... */\n      jump\t// out\n        /* \"multi-send-eth.sol\":233:276  mapping(address => uint256) public balances */\n    tag_22:\n      mstore(0x20, 0x00)\n      dup1\n      0x00\n      mstore\n      keccak256(0x00, 0x40)\n      0x00\n      swap2\n      pop\n      swap1\n      pop\n      sload\n      dup2\n      jump\t// out\n        /* \"multi-send-eth.sol\":1086:1421  function transferFixedETH(address payable[] calldata _to, uint256 _amount) public payable{... */\n    tag_28:\n        /* \"multi-send-eth.sol\":1216:1224  balances */\n      0x00\n        /* \"multi-send-eth.sol\":1216:1236  balances[msg.sender] */\n      dup1\n        /* \"multi-send-eth.sol\":1225:1235  msg.sender */\n      caller\n        /* \"multi-send-eth.sol\":1216:1236  balances[msg.sender] */\n      0xffffffffffffffffffffffffffffffffffffffff\n      and\n      0xffffffffffffffffffffffffffffffffffffffff\n      and\n      dup2\n      mstore\n      0x20\n      add\n      swap1\n      dup2\n      mstore\n      0x20\n      add\n      0x00\n      keccak256\n      sload\n        /* \"multi-send-eth.sol\":1206:1213  _amount */\n      dup2\n        /* \"multi-send-eth.sol\":1193:1196  _to */\n      dup5\n      dup5\n        /* \"multi-send-eth.sol\":1193:1203  _to.length */\n      swap1\n      pop\n        /* \"multi-send-eth.sol\":1193:1213  _to.length * _amount */\n      tag_55\n      swap2\n      swap1\n      tag_56\n      jump\t// in\n    tag_55:\n        /* \"multi-send-eth.sol\":1193:1236  _to.length * _amount < balances[msg.sender] */\n      lt\n        /* \"multi-send-eth.sol\":1185:1250  require(_to.length * _amount < balances[msg.sender], \"Ko hop le\") */\n      tag_57\n      jumpi\n      mload(0x40)\n      0x08c379a000000000000000000000000000000000000000000000000000000000\n      dup2\n      mstore\n      0x04\n      add\n      tag_58\n      swap1\n      tag_59\n      jump\t// in\n    tag_58:\n      mload(0x40)\n      dup1\n      swap2\n      sub\n      swap1\n      revert\n    tag_57:\n        /* \"multi-send-eth.sol\":1264:1270  uint i */\n      0x00\n        /* \"multi-send-eth.sol\":1260:1415  for(uint i = 0; i < _to.length; i++){... */\n    tag_60:\n        /* \"multi-send-eth.sol\":1280:1283  _to */\n      dup4\n      dup4\n        /* \"multi-send-eth.sol\":1280:1290  _to.length */\n      swap1\n      pop\n        /* \"multi-send-eth.sol\":1276:1277  i */\n      dup2\n        /* \"multi-send-eth.sol\":1276:1290  i < _to.length */\n      lt\n        /* \"multi-send-eth.sol\":1260:1415  for(uint i = 0; i < _to.length; i++){... */\n      iszero\n      tag_61\n      jumpi\n        /* \"multi-send-eth.sol\":1333:1366  balances[msg.sender].sub(_amount) */\n      tag_63\n        /* \"multi-send-eth.sol\":1358:1365  _amount */\n      dup3\n        /* \"multi-send-eth.sol\":1333:1341  balances */\n      0x00\n        /* \"multi-send-eth.sol\":1333:1353  balances[msg.sender] */\n      dup1\n        /* \"multi-send-eth.sol\":1342:1352  msg.sender */\n      caller\n        /* \"multi-send-eth.sol\":1333:1353  balances[msg.sender] */\n      0xffffffffffffffffffffffffffffffffffffffff\n      and\n      0xffffffffffffffffffffffffffffffffffffffff\n      and\n      dup2\n      mstore\n      0x20\n      add\n      swap1\n      dup2\n      mstore\n      0x20\n      add\n      0x00\n      keccak256\n      sload\n        /* \"multi-send-eth.sol\":1333:1357  balances[msg.sender].sub */\n      tag_64\n      swap1\n        /* \"multi-send-eth.sol\":1333:1366  balances[msg.sender].sub(_amount) */\n      swap2\n      swap1\n      0xffffffff\n      and\n      jump\t// in\n    tag_63:\n        /* \"multi-send-eth.sol\":1310:1318  balances */\n      0x00\n        /* \"multi-send-eth.sol\":1310:1330  balances[msg.sender] */\n      dup1\n        /* \"multi-send-eth.sol\":1319:1329  msg.sender */\n      caller\n        /* \"multi-send-eth.sol\":1310:1330  balances[msg.sender] */\n      0xffffffffffffffffffffffffffffffffffffffff\n      and\n      0xffffffffffffffffffffffffffffffffffffffff\n      and\n      dup2\n      mstore\n      0x20\n      add\n      swap1\n      dup2\n      mstore\n      0x20\n      add\n      0x00\n      keccak256\n        /* \"multi-send-eth.sol\":1310:1366  balances[msg.sender] = balances[msg.sender].sub(_amount) */\n      dup2\n      swap1\n      sstore\n      pop\n        /* \"multi-send-eth.sol\":1380:1383  _to */\n      dup4\n      dup4\n        /* \"multi-send-eth.sol\":1384:1385  i */\n      dup3\n        /* \"multi-send-eth.sol\":1380:1386  _to[i] */\n      dup2\n      dup2\n      lt\n      tag_65\n      jumpi\n      tag_66\n      tag_67\n      jump\t// in\n    tag_66:\n    tag_65:\n      swap1\n      pop\n      0x20\n      mul\n      add\n      0x20\n      dup2\n      add\n      swap1\n      tag_68\n      swap2\n      swap1\n      tag_69\n      jump\t// in\n    tag_68:\n        /* \"multi-send-eth.sol\":1380:1395  _to[i].transfer */\n      0xffffffffffffffffffffffffffffffffffffffff\n      and\n        /* \"multi-send-eth.sol\":1380:1404  _to[i].transfer(_amount) */\n      0x08fc\n        /* \"multi-send-eth.sol\":1396:1403  _amount */\n      dup4\n        /* \"multi-send-eth.sol\":1380:1404  _to[i].transfer(_amount) */\n      swap1\n      dup2\n      iszero\n      mul\n      swap1\n      mload(0x40)\n      0x00\n      mload(0x40)\n      dup1\n      dup4\n      sub\n      dup2\n      dup6\n      dup9\n      dup9\n      call\n      swap4\n      pop\n      pop\n      pop\n      pop\n      iszero\n      dup1\n      iszero\n      tag_71\n      jumpi\n      returndatasize\n      0x00\n      dup1\n      returndatacopy\n      revert(0x00, returndatasize)\n    tag_71:\n      pop\n        /* \"multi-send-eth.sol\":1292:1295  i++ */\n      dup1\n      dup1\n      tag_72\n      swap1\n      tag_73\n      jump\t// in\n    tag_72:\n      swap2\n      pop\n      pop\n        /* \"multi-send-eth.sol\":1260:1415  for(uint i = 0; i < _to.length; i++){... */\n      jump(tag_60)\n    tag_61:\n      pop\n        /* \"multi-send-eth.sol\":1086:1421  function transferFixedETH(address payable[] calldata _to, uint256 _amount) public payable{... */\n      pop\n      pop\n      pop\n      jump\t// out\n        /* \"multi-send-eth.sol\":1427:1877  function transferDiffETH(address payable[] calldata _to, uint256[] calldata _amount) public payable{... */\n    tag_32:\n        /* \"multi-send-eth.sol\":1557:1558  0 */\n      0x00\n        /* \"multi-send-eth.sol\":1544:1547  _to */\n      dup5\n      dup5\n        /* \"multi-send-eth.sol\":1544:1554  _to.length */\n      swap1\n      pop\n        /* \"multi-send-eth.sol\":1544:1558  _to.length > 0 */\n      gt\n        /* \"multi-send-eth.sol\":1536:1559  require(_to.length > 0) */\n      tag_75\n      jumpi\n      0x00\n      dup1\n      revert\n    tag_75:\n        /* \"multi-send-eth.sol\":1594:1595  0 */\n      0x00\n        /* \"multi-send-eth.sol\":1577:1584  _amount */\n      dup3\n      dup3\n        /* \"multi-send-eth.sol\":1577:1591  _amount.length */\n      swap1\n      pop\n        /* \"multi-send-eth.sol\":1577:1595  _amount.length > 0 */\n      gt\n        /* \"multi-send-eth.sol\":1569:1596  require(_amount.length > 0) */\n      tag_76\n      jumpi\n      0x00\n      dup1\n      revert\n    tag_76:\n        /* \"multi-send-eth.sol\":1628:1635  _amount */\n      dup2\n      dup2\n        /* \"multi-send-eth.sol\":1628:1642  _amount.length */\n      swap1\n      pop\n        /* \"multi-send-eth.sol\":1614:1617  _to */\n      dup5\n      dup5\n        /* \"multi-send-eth.sol\":1614:1624  _to.length */\n      swap1\n      pop\n        /* \"multi-send-eth.sol\":1614:1642  _to.length == _amount.length */\n      eq\n        /* \"multi-send-eth.sol\":1606:1643  require(_to.length == _amount.length) */\n      tag_77\n      jumpi\n      0x00\n      dup1\n      revert\n    tag_77:\n        /* \"multi-send-eth.sol\":1679:1687  balances */\n      0x00\n        /* \"multi-send-eth.sol\":1679:1699  balances[msg.sender] */\n      dup1\n        /* \"multi-send-eth.sol\":1688:1698  msg.sender */\n      caller\n        /* \"multi-send-eth.sol\":1679:1699  balances[msg.sender] */\n      0xffffffffffffffffffffffffffffffffffffffff\n      and\n      0xffffffffffffffffffffffffffffffffffffffff\n      and\n      dup2\n      mstore\n      0x20\n      add\n      swap1\n      dup2\n      mstore\n      0x20\n      add\n      0x00\n      keccak256\n      sload\n        /* \"multi-send-eth.sol\":1661:1676  getSum(_amount) */\n      tag_78\n        /* \"multi-send-eth.sol\":1668:1675  _amount */\n      dup4\n      dup4\n        /* \"multi-send-eth.sol\":1661:1667  getSum */\n      tag_49\n        /* \"multi-send-eth.sol\":1661:1676  getSum(_amount) */\n      jump\t// in\n    tag_78:\n        /* \"multi-send-eth.sol\":1661:1699  getSum(_amount) < balances[msg.sender] */\n      lt\n        /* \"multi-send-eth.sol\":1653:1700  require(getSum(_amount) < balances[msg.sender]) */\n      tag_79\n      jumpi\n      0x00\n      dup1\n      revert\n    tag_79:\n        /* \"multi-send-eth.sol\":1714:1720  uint i */\n      0x00\n        /* \"multi-send-eth.sol\":1710:1871  for(uint i = 0; i < _to.length; i++){... */\n    tag_80:\n        /* \"multi-send-eth.sol\":1730:1733  _to */\n      dup5\n      dup5\n        /* \"multi-send-eth.sol\":1730:1740  _to.length */\n      swap1\n      pop\n        /* \"multi-send-eth.sol\":1726:1727  i */\n      dup2\n        /* \"multi-send-eth.sol\":1726:1740  i < _to.length */\n      lt\n        /* \"multi-send-eth.sol\":1710:1871  for(uint i = 0; i < _to.length; i++){... */\n      iszero\n      tag_81\n      jumpi\n        /* \"multi-send-eth.sol\":1783:1819  balances[msg.sender].sub(_amount[i]) */\n      tag_83\n        /* \"multi-send-eth.sol\":1808:1815  _amount */\n      dup4\n      dup4\n        /* \"multi-send-eth.sol\":1816:1817  i */\n      dup4\n        /* \"multi-send-eth.sol\":1808:1818  _amount[i] */\n      dup2\n      dup2\n      lt\n      tag_84\n      jumpi\n      tag_85\n      tag_67\n      jump\t// in\n    tag_85:\n    tag_84:\n      swap1\n      pop\n      0x20\n      mul\n      add\n      calldataload\n        /* \"multi-send-eth.sol\":1783:1791  balances */\n      0x00\n        /* \"multi-send-eth.sol\":1783:1803  balances[msg.sender] */\n      dup1\n        /* \"multi-send-eth.sol\":1792:1802  msg.sender */\n      caller\n        /* \"multi-send-eth.sol\":1783:1803  balances[msg.sender] */\n      0xffffffffffffffffffffffffffffffffffffffff\n      and\n      0xffffffffffffffffffffffffffffffffffffffff\n      and\n      dup2\n      mstore\n      0x20\n      add\n      swap1\n      dup2\n      mstore\n      0x20\n      add\n      0x00\n      keccak256\n      sload\n        /* \"multi-send-eth.sol\":1783:1807  balances[msg.sender].sub */\n      tag_64\n      swap1\n        /* \"multi-send-eth.sol\":1783:1819  balances[msg.sender].sub(_amount[i]) */\n      swap2\n      swap1\n      0xffffffff\n      and\n      jump\t// in\n    tag_83:\n        /* \"multi-send-eth.sol\":1760:1768  balances */\n      0x00\n        /* \"multi-send-eth.sol\":1760:1780  balances[msg.sender] */\n      dup1\n        /* \"multi-send-eth.sol\":1769:1779  msg.sender */\n      caller\n        /* \"multi-send-eth.sol\":1760:1780  balances[msg.sender] */\n      0xffffffffffffffffffffffffffffffffffffffff\n      and\n      0xffffffffffffffffffffffffffffffffffffffff\n      and\n      dup2\n      mstore\n      0x20\n      add\n      swap1\n      dup2\n      mstore\n      0x20\n      add\n      0x00\n      keccak256\n        /* \"multi-send-eth.sol\":1760:1819  balances[msg.sender] = balances[msg.sender].sub(_amount[i]) */\n      dup2\n      swap1\n      sstore\n      pop\n        /* \"multi-send-eth.sol\":1833:1836  _to */\n      dup5\n      dup5\n        /* \"multi-send-eth.sol\":1837:1838  i */\n      dup3\n        /* \"multi-send-eth.sol\":1833:1839  _to[i] */\n      dup2\n      dup2\n      lt\n      tag_86\n      jumpi\n      tag_87\n      tag_67\n      jump\t// in\n    tag_87:\n    tag_86:\n      swap1\n      pop\n      0x20\n      mul\n      add\n      0x20\n      dup2\n      add\n      swap1\n      tag_88\n      swap2\n      swap1\n      tag_69\n      jump\t// in\n    tag_88:\n        /* \"multi-send-eth.sol\":1833:1848  _to[i].transfer */\n      0xffffffffffffffffffffffffffffffffffffffff\n      and\n        /* \"multi-send-eth.sol\":1833:1860  _to[i].transfer(_amount[i]) */\n      0x08fc\n        /* \"multi-send-eth.sol\":1849:1856  _amount */\n      dup5\n      dup5\n        /* \"multi-send-eth.sol\":1857:1858  i */\n      dup5\n        /* \"multi-send-eth.sol\":1849:1859  _amount[i] */\n      dup2\n      dup2\n      lt\n      tag_89\n      jumpi\n      tag_90\n      tag_67\n      jump\t// in\n    tag_90:\n    tag_89:\n      swap1\n      pop\n      0x20\n      mul\n      add\n      calldataload\n        /* \"multi-send-eth.sol\":1833:1860  _to[i].transfer(_amount[i]) */\n      swap1\n      dup2\n      iszero\n      mul\n      swap1\n      mload(0x40)\n      0x00\n      mload(0x40)\n      dup1\n      dup4\n      sub\n      dup2\n      dup6\n      dup9\n      dup9\n      call\n      swap4\n      pop\n      pop\n      pop\n      pop\n      iszero\n      dup1\n      iszero\n      tag_92\n      jumpi\n      returndatasize\n      0x00\n      dup1\n      returndatacopy\n      revert(0x00, returndatasize)\n    tag_92:\n      pop\n        /* \"multi-send-eth.sol\":1742:1745  i++ */\n      dup1\n      dup1\n      tag_93\n      swap1\n      tag_73\n      jump\t// in\n    tag_93:\n      swap2\n      pop\n      pop\n        /* \"multi-send-eth.sol\":1710:1871  for(uint i = 0; i < _to.length; i++){... */\n      jump(tag_80)\n    tag_81:\n      pop\n        /* \"multi-send-eth.sol\":1427:1877  function transferDiffETH(address payable[] calldata _to, uint256[] calldata _amount) public payable{... */\n      pop\n      pop\n      pop\n      pop\n      jump\t// out\n        /* \"multi-send-eth.sol\":398:501  function getBalanceContract() public view returns(uint256){... */\n    tag_35:\n        /* \"multi-send-eth.sol\":448:455  uint256 */\n      0x00\n        /* \"multi-send-eth.sol\":473:494  address(this).balance */\n      selfbalance\n        /* \"multi-send-eth.sol\":466:494  return address(this).balance */\n      swap1\n      pop\n        /* \"multi-send-eth.sol\":398:501  function getBalanceContract() public view returns(uint256){... */\n      swap1\n      jump\t// out\n        /* \"multi-send-eth.sol\":839:1080  function transferETH(address payable _to, uint256 _amount) public payable {... */\n    tag_40:\n        /* \"multi-send-eth.sol\":955:962  _amount */\n      dup1\n        /* \"multi-send-eth.sol\":931:939  balances */\n      0x00\n        /* \"multi-send-eth.sol\":931:951  balances[msg.sender] */\n      dup1\n        /* \"multi-send-eth.sol\":940:950  msg.sender */\n      caller\n        /* \"multi-send-eth.sol\":931:951  balances[msg.sender] */\n      0xffffffffffffffffffffffffffffffffffffffff\n      and\n      0xffffffffffffffffffffffffffffffffffffffff\n      and\n      dup2\n      mstore\n      0x20\n      add\n      swap1\n      dup2\n      mstore\n      0x20\n      add\n      0x00\n      keccak256\n      sload\n        /* \"multi-send-eth.sol\":931:962  balances[msg.sender] >= _amount */\n      lt\n      iszero\n        /* \"multi-send-eth.sol\":923:976  require(balances[msg.sender] >= _amount, \"Ko hop le\") */\n      tag_96\n      jumpi\n      mload(0x40)\n      0x08c379a000000000000000000000000000000000000000000000000000000000\n      dup2\n      mstore\n      0x04\n      add\n      tag_97\n      swap1\n      tag_59\n      jump\t// in\n    tag_97:\n      mload(0x40)\n      dup1\n      swap2\n      sub\n      swap1\n      revert\n    tag_96:\n        /* \"multi-send-eth.sol\":1009:1042  balances[msg.sender].sub(_amount) */\n      tag_98\n        /* \"multi-send-eth.sol\":1034:1041  _amount */\n      dup2\n        /* \"multi-send-eth.sol\":1009:1017  balances */\n      0x00\n        /* \"multi-send-eth.sol\":1009:1029  balances[msg.sender] */\n      dup1\n        /* \"multi-send-eth.sol\":1018:1028  msg.sender */\n      caller\n        /* \"multi-send-eth.sol\":1009:1029  balances[msg.sender] */\n      0xffffffffffffffffffffffffffffffffffffffff\n      and\n      0xffffffffffffffffffffffffffffffffffffffff\n      and\n      dup2\n      mstore\n      0x20\n      add\n      swap1\n      dup2\n      mstore\n      0x20\n      add\n      0x00\n      keccak256\n      sload\n        /* \"multi-send-eth.sol\":1009:1033  balances[msg.sender].sub */\n      tag_64\n      swap1\n        /* \"multi-send-eth.sol\":1009:1042  balances[msg.sender].sub(_amount) */\n      swap2\n      swap1\n      0xffffffff\n      and\n      jump\t// in\n    tag_98:\n        /* \"multi-send-eth.sol\":986:994  balances */\n      0x00\n        /* \"multi-send-eth.sol\":986:1006  balances[msg.sender] */\n      dup1\n        /* \"multi-send-eth.sol\":995:1005  msg.sender */\n      caller\n        /* \"multi-send-eth.sol\":986:1006  balances[msg.sender] */\n      0xffffffffffffffffffffffffffffffffffffffff\n      and\n      0xffffffffffffffffffffffffffffffffffffffff\n      and\n      dup2\n      mstore\n      0x20\n      add\n      swap1\n      dup2\n      mstore\n      0x20\n      add\n      0x00\n      keccak256\n        /* \"multi-send-eth.sol\":986:1042  balances[msg.sender] = balances[msg.sender].sub(_amount) */\n      dup2\n      swap1\n      sstore\n      pop\n        /* \"multi-send-eth.sol\":1052:1055  _to */\n      dup2\n        /* \"multi-send-eth.sol\":1052:1064  _to.transfer */\n      0xffffffffffffffffffffffffffffffffffffffff\n      and\n        /* \"multi-send-eth.sol\":1052:1073  _to.transfer(_amount) */\n      0x08fc\n        /* \"multi-send-eth.sol\":1065:1072  _amount */\n      dup3\n        /* \"multi-send-eth.sol\":1052:1073  _to.transfer(_amount) */\n      swap1\n      dup2\n      iszero\n      mul\n      swap1\n      mload(0x40)\n      0x00\n      mload(0x40)\n      dup1\n      dup4\n      sub\n      dup2\n      dup6\n      dup9\n      dup9\n      call\n      swap4\n      pop\n      pop\n      pop\n      pop\n      iszero\n      dup1\n      iszero\n      tag_100\n      jumpi\n      returndatasize\n      0x00\n      dup1\n      returndatacopy\n      revert(0x00, returndatasize)\n    tag_100:\n      pop\n        /* \"multi-send-eth.sol\":839:1080  function transferETH(address payable _to, uint256 _amount) public payable {... */\n      pop\n      pop\n      jump\t// out\n        /* \"multi-send-eth.sol\":507:608  function getBalanceAccount() public view returns(uint256){... */\n    tag_43:\n        /* \"multi-send-eth.sol\":556:563  uint256 */\n      0x00\n        /* \"multi-send-eth.sol\":581:589  balances */\n      dup1\n        /* \"multi-send-eth.sol\":581:601  balances[msg.sender] */\n      0x00\n        /* \"multi-send-eth.sol\":590:600  msg.sender */\n      caller\n        /* \"multi-send-eth.sol\":581:601  balances[msg.sender] */\n      0xffffffffffffffffffffffffffffffffffffffff\n      and\n      0xffffffffffffffffffffffffffffffffffffffff\n      and\n      dup2\n      mstore\n      0x20\n      add\n      swap1\n      dup2\n      mstore\n      0x20\n      add\n      0x00\n      keccak256\n      sload\n        /* \"multi-send-eth.sol\":574:601  return balances[msg.sender] */\n      swap1\n      pop\n        /* \"multi-send-eth.sol\":507:608  function getBalanceAccount() public view returns(uint256){... */\n      swap1\n      jump\t// out\n        /* \"multi-send-eth.sol\":614:833  function getSum(uint256[] calldata _amount) public view returns(uint256){... */\n    tag_49:\n        /* \"multi-send-eth.sol\":678:685  uint256 */\n      0x00\n        /* \"multi-send-eth.sol\":696:707  uint256 sum */\n      dup1\n        /* \"multi-send-eth.sol\":721:727  uint i */\n      0x00\n        /* \"multi-send-eth.sol\":717:807  for(uint i = 0; i < _amount.length; i++){... */\n    tag_103:\n        /* \"multi-send-eth.sol\":737:744  _amount */\n      dup5\n      dup5\n        /* \"multi-send-eth.sol\":737:751  _amount.length */\n      swap1\n      pop\n        /* \"multi-send-eth.sol\":733:734  i */\n      dup2\n        /* \"multi-send-eth.sol\":733:751  i < _amount.length */\n      lt\n        /* \"multi-send-eth.sol\":717:807  for(uint i = 0; i < _amount.length; i++){... */\n      iszero\n      tag_104\n      jumpi\n        /* \"multi-send-eth.sol\":777:796  sum.add(_amount[i]) */\n      tag_106\n        /* \"multi-send-eth.sol\":785:792  _amount */\n      dup6\n      dup6\n        /* \"multi-send-eth.sol\":793:794  i */\n      dup4\n        /* \"multi-send-eth.sol\":785:795  _amount[i] */\n      dup2\n      dup2\n      lt\n      tag_107\n      jumpi\n      tag_108\n      tag_67\n      jump\t// in\n    tag_108:\n    tag_107:\n      swap1\n      pop\n      0x20\n      mul\n      add\n      calldataload\n        /* \"multi-send-eth.sol\":777:780  sum */\n      dup4\n        /* \"multi-send-eth.sol\":777:784  sum.add */\n      tag_53\n      swap1\n        /* \"multi-send-eth.sol\":777:796  sum.add(_amount[i]) */\n      swap2\n      swap1\n      0xffffffff\n      and\n      jump\t// in\n    tag_106:\n        /* \"multi-send-eth.sol\":771:796  sum = sum.add(_amount[i]) */\n      swap2\n      pop\n        /* \"multi-send-eth.sol\":753:756  i++ */\n      dup1\n      dup1\n      tag_109\n      swap1\n      tag_73\n      jump\t// in\n    tag_109:\n      swap2\n      pop\n      pop\n        /* \"multi-send-eth.sol\":717:807  for(uint i = 0; i < _amount.length; i++){... */\n      jump(tag_103)\n    tag_104:\n      pop\n        /* \"multi-send-eth.sol\":823:826  sum */\n      dup1\n        /* \"multi-send-eth.sol\":816:826  return sum */\n      swap2\n      pop\n      pop\n        /* \"multi-send-eth.sol\":614:833  function getSum(uint256[] calldata _amount) public view returns(uint256){... */\n      swap3\n      swap2\n      pop\n      pop\n      jump\t// out\n        /* \"@openzeppelin/contracts/utils/math/SafeMath.sol\":2755:2851  function add(uint256 a, uint256 b) internal pure returns (uint256) {... */\n    tag_53:\n        /* \"@openzeppelin/contracts/utils/math/SafeMath.sol\":2813:2820  uint256 */\n      0x00\n        /* \"@openzeppelin/contracts/utils/math/SafeMath.sol\":2843:2844  b */\n      dup2\n        /* \"@openzeppelin/contracts/utils/math/SafeMath.sol\":2839:2840  a */\n      dup4\n        /* \"@openzeppelin/contracts/utils/math/SafeMath.sol\":2839:2844  a + b */\n      tag_111\n      swap2\n      swap1\n      tag_112\n      jump\t// in\n    tag_111:\n        /* \"@openzeppelin/contracts/utils/math/SafeMath.sol\":2832:2844  return a + b */\n      swap1\n      pop\n        /* \"@openzeppelin/contracts/utils/math/SafeMath.sol\":2755:2851  function add(uint256 a, uint256 b) internal pure returns (uint256) {... */\n      swap3\n      swap2\n      pop\n      pop\n      jump\t// out\n        /* \"@openzeppelin/contracts/utils/math/SafeMath.sol\":3122:3218  function sub(uint256 a, uint256 b) internal pure returns (uint256) {... */\n    tag_64:\n        /* \"@openzeppelin/contracts/utils/math/SafeMath.sol\":3180:3187  uint256 */\n      0x00\n        /* \"@openzeppelin/contracts/utils/math/SafeMath.sol\":3210:3211  b */\n      dup2\n        /* \"@openzeppelin/contracts/utils/math/SafeMath.sol\":3206:3207  a */\n      dup4\n        /* \"@openzeppelin/contracts/utils/math/SafeMath.sol\":3206:3211  a - b */\n      tag_114\n      swap2\n      swap1\n      tag_115\n      jump\t// in\n    tag_114:\n        /* \"@openzeppelin/contracts/utils/math/SafeMath.sol\":3199:3211  return a - b */\n      swap1\n      pop\n        /* \"@openzeppelin/contracts/utils/math/SafeMath.sol\":3122:3218  function sub(uint256 a, uint256 b) internal pure returns (uint256) {... */\n      swap3\n      swap2\n      pop\n      pop\n      jump\t// out\n        /* \"#utility.yul\":88:205   */\n    tag_117:\n        /* \"#utility.yul\":197:198   */\n      0x00\n        /* \"#utility.yul\":194:195   */\n      dup1\n        /* \"#utility.yul\":187:199   */\n      revert\n        /* \"#utility.yul\":211:328   */\n    tag_118:\n        /* \"#utility.yul\":320:321   */\n      0x00\n        /* \"#utility.yul\":317:318   */\n      dup1\n        /* \"#utility.yul\":310:322   */\n      revert\n        /* \"#utility.yul\":334:460   */\n    tag_119:\n        /* \"#utility.yul\":371:378   */\n      0x00\n        /* \"#utility.yul\":411:453   */\n      0xffffffffffffffffffffffffffffffffffffffff\n        /* \"#utility.yul\":404:409   */\n      dup3\n        /* \"#utility.yul\":400:454   */\n      and\n        /* \"#utility.yul\":389:454   */\n      swap1\n      pop\n        /* \"#utility.yul\":334:460   */\n      swap2\n      swap1\n      pop\n      jump\t// out\n        /* \"#utility.yul\":466:562   */\n    tag_120:\n        /* \"#utility.yul\":503:510   */\n      0x00\n        /* \"#utility.yul\":532:556   */\n      tag_145\n        /* \"#utility.yul\":550:555   */\n      dup3\n        /* \"#utility.yul\":532:556   */\n      tag_119\n      jump\t// in\n    tag_145:\n        /* \"#utility.yul\":521:556   */\n      swap1\n      pop\n        /* \"#utility.yul\":466:562   */\n      swap2\n      swap1\n      pop\n      jump\t// out\n        /* \"#utility.yul\":568:690   */\n    tag_121:\n        /* \"#utility.yul\":641:665   */\n      tag_147\n        /* \"#utility.yul\":659:664   */\n      dup2\n        /* \"#utility.yul\":641:665   */\n      tag_120\n      jump\t// in\n    tag_147:\n        /* \"#utility.yul\":634:639   */\n      dup2\n        /* \"#utility.yul\":631:666   */\n      eq\n        /* \"#utility.yul\":621:684   */\n      tag_148\n      jumpi\n        /* \"#utility.yul\":680:681   */\n      0x00\n        /* \"#utility.yul\":677:678   */\n      dup1\n        /* \"#utility.yul\":670:682   */\n      revert\n        /* \"#utility.yul\":621:684   */\n    tag_148:\n        /* \"#utility.yul\":568:690   */\n      pop\n      jump\t// out\n        /* \"#utility.yul\":696:835   */\n    tag_122:\n        /* \"#utility.yul\":742:747   */\n      0x00\n        /* \"#utility.yul\":780:786   */\n      dup2\n        /* \"#utility.yul\":767:787   */\n      calldataload\n        /* \"#utility.yul\":758:787   */\n      swap1\n      pop\n        /* \"#utility.yul\":796:829   */\n      tag_150\n        /* \"#utility.yul\":823:828   */\n      dup2\n        /* \"#utility.yul\":796:829   */\n      tag_121\n      jump\t// in\n    tag_150:\n        /* \"#utility.yul\":696:835   */\n      swap3\n      swap2\n      pop\n      pop\n      jump\t// out\n        /* \"#utility.yul\":841:1170   */\n    tag_21:\n        /* \"#utility.yul\":900:906   */\n      0x00\n        /* \"#utility.yul\":949:951   */\n      0x20\n        /* \"#utility.yul\":937:946   */\n      dup3\n        /* \"#utility.yul\":928:935   */\n      dup5\n        /* \"#utility.yul\":924:947   */\n      sub\n        /* \"#utility.yul\":920:952   */\n      slt\n        /* \"#utility.yul\":917:1036   */\n      iszero\n      tag_152\n      jumpi\n        /* \"#utility.yul\":955:1034   */\n      tag_153\n      tag_117\n      jump\t// in\n    tag_153:\n        /* \"#utility.yul\":917:1036   */\n    tag_152:\n        /* \"#utility.yul\":1075:1076   */\n      0x00\n        /* \"#utility.yul\":1100:1153   */\n      tag_154\n        /* \"#utility.yul\":1145:1152   */\n      dup5\n        /* \"#utility.yul\":1136:1142   */\n      dup3\n        /* \"#utility.yul\":1125:1134   */\n      dup6\n        /* \"#utility.yul\":1121:1143   */\n      add\n        /* \"#utility.yul\":1100:1153   */\n      tag_122\n      jump\t// in\n    tag_154:\n        /* \"#utility.yul\":1090:1153   */\n      swap2\n      pop\n        /* \"#utility.yul\":1046:1163   */\n      pop\n        /* \"#utility.yul\":841:1170   */\n      swap3\n      swap2\n      pop\n      pop\n      jump\t// out\n        /* \"#utility.yul\":1176:1253   */\n    tag_123:\n        /* \"#utility.yul\":1213:1220   */\n      0x00\n        /* \"#utility.yul\":1242:1247   */\n      dup2\n        /* \"#utility.yul\":1231:1247   */\n      swap1\n      pop\n        /* \"#utility.yul\":1176:1253   */\n      swap2\n      swap1\n      pop\n      jump\t// out\n        /* \"#utility.yul\":1259:1377   */\n    tag_124:\n        /* \"#utility.yul\":1346:1370   */\n      tag_157\n        /* \"#utility.yul\":1364:1369   */\n      dup2\n        /* \"#utility.yul\":1346:1370   */\n      tag_123\n      jump\t// in\n    tag_157:\n        /* \"#utility.yul\":1341:1344   */\n      dup3\n        /* \"#utility.yul\":1334:1371   */\n      mstore\n        /* \"#utility.yul\":1259:1377   */\n      pop\n      pop\n      jump\t// out\n        /* \"#utility.yul\":1383:1605   */\n    tag_24:\n        /* \"#utility.yul\":1476:1480   */\n      0x00\n        /* \"#utility.yul\":1514:1516   */\n      0x20\n        /* \"#utility.yul\":1503:1512   */\n      dup3\n        /* \"#utility.yul\":1499:1517   */\n      add\n        /* \"#utility.yul\":1491:1517   */\n      swap1\n      pop\n        /* \"#utility.yul\":1527:1598   */\n      tag_159\n        /* \"#utility.yul\":1595:1596   */\n      0x00\n        /* \"#utility.yul\":1584:1593   */\n      dup4\n        /* \"#utility.yul\":1580:1597   */\n      add\n        /* \"#utility.yul\":1571:1577   */\n      dup5\n        /* \"#utility.yul\":1527:1598   */\n      tag_124\n      jump\t// in\n    tag_159:\n        /* \"#utility.yul\":1383:1605   */\n      swap3\n      swap2\n      pop\n      pop\n      jump\t// out\n        /* \"#utility.yul\":1611:1728   */\n    tag_125:\n        /* \"#utility.yul\":1720:1721   */\n      0x00\n        /* \"#utility.yul\":1717:1718   */\n      dup1\n        /* \"#utility.yul\":1710:1722   */\n      revert\n        /* \"#utility.yul\":1734:1851   */\n    tag_126:\n        /* \"#utility.yul\":1843:1844   */\n      0x00\n        /* \"#utility.yul\":1840:1841   */\n      dup1\n        /* \"#utility.yul\":1833:1845   */\n      revert\n        /* \"#utility.yul\":1857:1974   */\n    tag_127:\n        /* \"#utility.yul\":1966:1967   */\n      0x00\n        /* \"#utility.yul\":1963:1964   */\n      dup1\n        /* \"#utility.yul\":1956:1968   */\n      revert\n        /* \"#utility.yul\":2005:2581   */\n    tag_128:\n        /* \"#utility.yul\":2086:2094   */\n      0x00\n        /* \"#utility.yul\":2096:2102   */\n      dup1\n        /* \"#utility.yul\":2146:2149   */\n      dup4\n        /* \"#utility.yul\":2139:2143   */\n      0x1f\n        /* \"#utility.yul\":2131:2137   */\n      dup5\n        /* \"#utility.yul\":2127:2144   */\n      add\n        /* \"#utility.yul\":2123:2150   */\n      slt\n        /* \"#utility.yul\":2113:2235   */\n      tag_164\n      jumpi\n        /* \"#utility.yul\":2154:2233   */\n      tag_165\n      tag_125\n      jump\t// in\n    tag_165:\n        /* \"#utility.yul\":2113:2235   */\n    tag_164:\n        /* \"#utility.yul\":2267:2273   */\n      dup3\n        /* \"#utility.yul\":2254:2274   */\n      calldataload\n        /* \"#utility.yul\":2244:2274   */\n      swap1\n      pop\n        /* \"#utility.yul\":2297:2315   */\n      0xffffffffffffffff\n        /* \"#utility.yul\":2289:2295   */\n      dup2\n        /* \"#utility.yul\":2286:2316   */\n      gt\n        /* \"#utility.yul\":2283:2400   */\n      iszero\n      tag_166\n      jumpi\n        /* \"#utility.yul\":2319:2398   */\n      tag_167\n      tag_126\n      jump\t// in\n    tag_167:\n        /* \"#utility.yul\":2283:2400   */\n    tag_166:\n        /* \"#utility.yul\":2433:2437   */\n      0x20\n        /* \"#utility.yul\":2425:2431   */\n      dup4\n        /* \"#utility.yul\":2421:2438   */\n      add\n        /* \"#utility.yul\":2409:2438   */\n      swap2\n      pop\n        /* \"#utility.yul\":2487:2490   */\n      dup4\n        /* \"#utility.yul\":2479:2483   */\n      0x20\n        /* \"#utility.yul\":2471:2477   */\n      dup3\n        /* \"#utility.yul\":2467:2484   */\n      mul\n        /* \"#utility.yul\":2457:2465   */\n      dup4\n        /* \"#utility.yul\":2453:2485   */\n      add\n        /* \"#utility.yul\":2450:2491   */\n      gt\n        /* \"#utility.yul\":2447:2575   */\n      iszero\n      tag_168\n      jumpi\n        /* \"#utility.yul\":2494:2573   */\n      tag_169\n      tag_127\n      jump\t// in\n    tag_169:\n        /* \"#utility.yul\":2447:2575   */\n    tag_168:\n        /* \"#utility.yul\":2005:2581   */\n      swap3\n      pop\n      swap3\n      swap1\n      pop\n      jump\t// out\n        /* \"#utility.yul\":2587:2709   */\n    tag_129:\n        /* \"#utility.yul\":2660:2684   */\n      tag_171\n        /* \"#utility.yul\":2678:2683   */\n      dup2\n        /* \"#utility.yul\":2660:2684   */\n      tag_123\n      jump\t// in\n    tag_171:\n        /* \"#utility.yul\":2653:2658   */\n      dup2\n        /* \"#utility.yul\":2650:2685   */\n      eq\n        /* \"#utility.yul\":2640:2703   */\n      tag_172\n      jumpi\n        /* \"#utility.yul\":2699:2700   */\n      0x00\n        /* \"#utility.yul\":2696:2697   */\n      dup1\n        /* \"#utility.yul\":2689:2701   */\n      revert\n        /* \"#utility.yul\":2640:2703   */\n    tag_172:\n        /* \"#utility.yul\":2587:2709   */\n      pop\n      jump\t// out\n        /* \"#utility.yul\":2715:2854   */\n    tag_130:\n        /* \"#utility.yul\":2761:2766   */\n      0x00\n        /* \"#utility.yul\":2799:2805   */\n      dup2\n        /* \"#utility.yul\":2786:2806   */\n      calldataload\n        /* \"#utility.yul\":2777:2806   */\n      swap1\n      pop\n        /* \"#utility.yul\":2815:2848   */\n      tag_174\n        /* \"#utility.yul\":2842:2847   */\n      dup2\n        /* \"#utility.yul\":2815:2848   */\n      tag_129\n      jump\t// in\n    tag_174:\n        /* \"#utility.yul\":2715:2854   */\n      swap3\n      swap2\n      pop\n      pop\n      jump\t// out\n        /* \"#utility.yul\":2860:3580   */\n    tag_27:\n        /* \"#utility.yul\":2963:2969   */\n      0x00\n        /* \"#utility.yul\":2971:2977   */\n      dup1\n        /* \"#utility.yul\":2979:2985   */\n      0x00\n        /* \"#utility.yul\":3028:3030   */\n      0x40\n        /* \"#utility.yul\":3016:3025   */\n      dup5\n        /* \"#utility.yul\":3007:3014   */\n      dup7\n        /* \"#utility.yul\":3003:3026   */\n      sub\n        /* \"#utility.yul\":2999:3031   */\n      slt\n        /* \"#utility.yul\":2996:3115   */\n      iszero\n      tag_176\n      jumpi\n        /* \"#utility.yul\":3034:3113   */\n      tag_177\n      tag_117\n      jump\t// in\n    tag_177:\n        /* \"#utility.yul\":2996:3115   */\n    tag_176:\n        /* \"#utility.yul\":3182:3183   */\n      0x00\n        /* \"#utility.yul\":3171:3180   */\n      dup5\n        /* \"#utility.yul\":3167:3184   */\n      add\n        /* \"#utility.yul\":3154:3185   */\n      calldataload\n        /* \"#utility.yul\":3212:3230   */\n      0xffffffffffffffff\n        /* \"#utility.yul\":3204:3210   */\n      dup2\n        /* \"#utility.yul\":3201:3231   */\n      gt\n        /* \"#utility.yul\":3198:3315   */\n      iszero\n      tag_178\n      jumpi\n        /* \"#utility.yul\":3234:3313   */\n      tag_179\n      tag_118\n      jump\t// in\n    tag_179:\n        /* \"#utility.yul\":3198:3315   */\n    tag_178:\n        /* \"#utility.yul\":3347:3435   */\n      tag_180\n        /* \"#utility.yul\":3427:3434   */\n      dup7\n        /* \"#utility.yul\":3418:3424   */\n      dup3\n        /* \"#utility.yul\":3407:3416   */\n      dup8\n        /* \"#utility.yul\":3403:3425   */\n      add\n        /* \"#utility.yul\":3347:3435   */\n      tag_128\n      jump\t// in\n    tag_180:\n        /* \"#utility.yul\":3329:3435   */\n      swap4\n      pop\n      swap4\n      pop\n        /* \"#utility.yul\":3125:3445   */\n      pop\n        /* \"#utility.yul\":3484:3486   */\n      0x20\n        /* \"#utility.yul\":3510:3563   */\n      tag_181\n        /* \"#utility.yul\":3555:3562   */\n      dup7\n        /* \"#utility.yul\":3546:3552   */\n      dup3\n        /* \"#utility.yul\":3535:3544   */\n      dup8\n        /* \"#utility.yul\":3531:3553   */\n      add\n        /* \"#utility.yul\":3510:3563   */\n      tag_130\n      jump\t// in\n    tag_181:\n        /* \"#utility.yul\":3500:3563   */\n      swap2\n      pop\n        /* \"#utility.yul\":3455:3573   */\n      pop\n        /* \"#utility.yul\":2860:3580   */\n      swap3\n      pop\n      swap3\n      pop\n      swap3\n      jump\t// out\n        /* \"#utility.yul\":3603:4171   */\n    tag_131:\n        /* \"#utility.yul\":3676:3684   */\n      0x00\n        /* \"#utility.yul\":3686:3692   */\n      dup1\n        /* \"#utility.yul\":3736:3739   */\n      dup4\n        /* \"#utility.yul\":3729:3733   */\n      0x1f\n        /* \"#utility.yul\":3721:3727   */\n      dup5\n        /* \"#utility.yul\":3717:3734   */\n      add\n        /* \"#utility.yul\":3713:3740   */\n      slt\n        /* \"#utility.yul\":3703:3825   */\n      tag_183\n      jumpi\n        /* \"#utility.yul\":3744:3823   */\n      tag_184\n      tag_125\n      jump\t// in\n    tag_184:\n        /* \"#utility.yul\":3703:3825   */\n    tag_183:\n        /* \"#utility.yul\":3857:3863   */\n      dup3\n        /* \"#utility.yul\":3844:3864   */\n      calldataload\n        /* \"#utility.yul\":3834:3864   */\n      swap1\n      pop\n        /* \"#utility.yul\":3887:3905   */\n      0xffffffffffffffff\n        /* \"#utility.yul\":3879:3885   */\n      dup2\n        /* \"#utility.yul\":3876:3906   */\n      gt\n        /* \"#utility.yul\":3873:3990   */\n      iszero\n      tag_185\n      jumpi\n        /* \"#utility.yul\":3909:3988   */\n      tag_186\n      tag_126\n      jump\t// in\n    tag_186:\n        /* \"#utility.yul\":3873:3990   */\n    tag_185:\n        /* \"#utility.yul\":4023:4027   */\n      0x20\n        /* \"#utility.yul\":4015:4021   */\n      dup4\n        /* \"#utility.yul\":4011:4028   */\n      add\n        /* \"#utility.yul\":3999:4028   */\n      swap2\n      pop\n        /* \"#utility.yul\":4077:4080   */\n      dup4\n        /* \"#utility.yul\":4069:4073   */\n      0x20\n        /* \"#utility.yul\":4061:4067   */\n      dup3\n        /* \"#utility.yul\":4057:4074   */\n      mul\n        /* \"#utility.yul\":4047:4055   */\n      dup4\n        /* \"#utility.yul\":4043:4075   */\n      add\n        /* \"#utility.yul\":4040:4081   */\n      gt\n        /* \"#utility.yul\":4037:4165   */\n      iszero\n      tag_187\n      jumpi\n        /* \"#utility.yul\":4084:4163   */\n      tag_188\n      tag_127\n      jump\t// in\n    tag_188:\n        /* \"#utility.yul\":4037:4165   */\n    tag_187:\n        /* \"#utility.yul\":3603:4171   */\n      swap3\n      pop\n      swap3\n      swap1\n      pop\n      jump\t// out\n        /* \"#utility.yul\":4177:5127   */\n    tag_31:\n        /* \"#utility.yul\":4307:4313   */\n      0x00\n        /* \"#utility.yul\":4315:4321   */\n      dup1\n        /* \"#utility.yul\":4323:4329   */\n      0x00\n        /* \"#utility.yul\":4331:4337   */\n      dup1\n        /* \"#utility.yul\":4380:4382   */\n      0x40\n        /* \"#utility.yul\":4368:4377   */\n      dup6\n        /* \"#utility.yul\":4359:4366   */\n      dup8\n        /* \"#utility.yul\":4355:4378   */\n      sub\n        /* \"#utility.yul\":4351:4383   */\n      slt\n        /* \"#utility.yul\":4348:4467   */\n      iszero\n      tag_190\n      jumpi\n        /* \"#utility.yul\":4386:4465   */\n      tag_191\n      tag_117\n      jump\t// in\n    tag_191:\n        /* \"#utility.yul\":4348:4467   */\n    tag_190:\n        /* \"#utility.yul\":4534:4535   */\n      0x00\n        /* \"#utility.yul\":4523:4532   */\n      dup6\n        /* \"#utility.yul\":4519:4536   */\n      add\n        /* \"#utility.yul\":4506:4537   */\n      calldataload\n        /* \"#utility.yul\":4564:4582   */\n      0xffffffffffffffff\n        /* \"#utility.yul\":4556:4562   */\n      dup2\n        /* \"#utility.yul\":4553:4583   */\n      gt\n        /* \"#utility.yul\":4550:4667   */\n      iszero\n      tag_192\n      jumpi\n        /* \"#utility.yul\":4586:4665   */\n      tag_193\n      tag_118\n      jump\t// in\n    tag_193:\n        /* \"#utility.yul\":4550:4667   */\n    tag_192:\n        /* \"#utility.yul\":4699:4787   */\n      tag_194\n        /* \"#utility.yul\":4779:4786   */\n      dup8\n        /* \"#utility.yul\":4770:4776   */\n      dup3\n        /* \"#utility.yul\":4759:4768   */\n      dup9\n        /* \"#utility.yul\":4755:4777   */\n      add\n        /* \"#utility.yul\":4699:4787   */\n      tag_128\n      jump\t// in\n    tag_194:\n        /* \"#utility.yul\":4681:4787   */\n      swap5\n      pop\n      swap5\n      pop\n        /* \"#utility.yul\":4477:4797   */\n      pop\n        /* \"#utility.yul\":4864:4866   */\n      0x20\n        /* \"#utility.yul\":4853:4862   */\n      dup6\n        /* \"#utility.yul\":4849:4867   */\n      add\n        /* \"#utility.yul\":4836:4868   */\n      calldataload\n        /* \"#utility.yul\":4895:4913   */\n      0xffffffffffffffff\n        /* \"#utility.yul\":4887:4893   */\n      dup2\n        /* \"#utility.yul\":4884:4914   */\n      gt\n        /* \"#utility.yul\":4881:4998   */\n      iszero\n      tag_195\n      jumpi\n        /* \"#utility.yul\":4917:4996   */\n      tag_196\n      tag_118\n      jump\t// in\n    tag_196:\n        /* \"#utility.yul\":4881:4998   */\n    tag_195:\n        /* \"#utility.yul\":5030:5110   */\n      tag_197\n        /* \"#utility.yul\":5102:5109   */\n      dup8\n        /* \"#utility.yul\":5093:5099   */\n      dup3\n        /* \"#utility.yul\":5082:5091   */\n      dup9\n        /* \"#utility.yul\":5078:5100   */\n      add\n        /* \"#utility.yul\":5030:5110   */\n      tag_131\n      jump\t// in\n    tag_197:\n        /* \"#utility.yul\":5012:5110   */\n      swap3\n      pop\n      swap3\n      pop\n        /* \"#utility.yul\":4807:5120   */\n      pop\n        /* \"#utility.yul\":4177:5127   */\n      swap3\n      swap6\n      swap2\n      swap5\n      pop\n      swap3\n      pop\n      jump\t// out\n        /* \"#utility.yul\":5133:5237   */\n    tag_132:\n        /* \"#utility.yul\":5178:5185   */\n      0x00\n        /* \"#utility.yul\":5207:5231   */\n      tag_199\n        /* \"#utility.yul\":5225:5230   */\n      dup3\n        /* \"#utility.yul\":5207:5231   */\n      tag_119\n      jump\t// in\n    tag_199:\n        /* \"#utility.yul\":5196:5231   */\n      swap1\n      pop\n        /* \"#utility.yul\":5133:5237   */\n      swap2\n      swap1\n      pop\n      jump\t// out\n        /* \"#utility.yul\":5243:5381   */\n    tag_133:\n        /* \"#utility.yul\":5324:5356   */\n      tag_201\n        /* \"#utility.yul\":5350:5355   */\n      dup2\n        /* \"#utility.yul\":5324:5356   */\n      tag_132\n      jump\t// in\n    tag_201:\n        /* \"#utility.yul\":5317:5322   */\n      dup2\n        /* \"#utility.yul\":5314:5357   */\n      eq\n        /* \"#utility.yul\":5304:5375   */\n      tag_202\n      jumpi\n        /* \"#utility.yul\":5371:5372   */\n      0x00\n        /* \"#utility.yul\":5368:5369   */\n      dup1\n        /* \"#utility.yul\":5361:5373   */\n      revert\n        /* \"#utility.yul\":5304:5375   */\n    tag_202:\n        /* \"#utility.yul\":5243:5381   */\n      pop\n      jump\t// out\n        /* \"#utility.yul\":5387:5542   */\n    tag_134:\n        /* \"#utility.yul\":5441:5446   */\n      0x00\n        /* \"#utility.yul\":5479:5485   */\n      dup2\n        /* \"#utility.yul\":5466:5486   */\n      calldataload\n        /* \"#utility.yul\":5457:5486   */\n      swap1\n      pop\n        /* \"#utility.yul\":5495:5536   */\n      tag_204\n        /* \"#utility.yul\":5530:5535   */\n      dup2\n        /* \"#utility.yul\":5495:5536   */\n      tag_133\n      jump\t// in\n    tag_204:\n        /* \"#utility.yul\":5387:5542   */\n      swap3\n      swap2\n      pop\n      pop\n      jump\t// out\n        /* \"#utility.yul\":5548:6038   */\n    tag_39:\n        /* \"#utility.yul\":5624:5630   */\n      0x00\n        /* \"#utility.yul\":5632:5638   */\n      dup1\n        /* \"#utility.yul\":5681:5683   */\n      0x40\n        /* \"#utility.yul\":5669:5678   */\n      dup4\n        /* \"#utility.yul\":5660:5667   */\n      dup6\n        /* \"#utility.yul\":5656:5679   */\n      sub\n        /* \"#utility.yul\":5652:5684   */\n      slt\n        /* \"#utility.yul\":5649:5768   */\n      iszero\n      tag_206\n      jumpi\n        /* \"#utility.yul\":5687:5766   */\n      tag_207\n      tag_117\n      jump\t// in\n    tag_207:\n        /* \"#utility.yul\":5649:5768   */\n    tag_206:\n        /* \"#utility.yul\":5807:5808   */\n      0x00\n        /* \"#utility.yul\":5832:5893   */\n      tag_208\n        /* \"#utility.yul\":5885:5892   */\n      dup6\n        /* \"#utility.yul\":5876:5882   */\n      dup3\n        /* \"#utility.yul\":5865:5874   */\n      dup7\n        /* \"#utility.yul\":5861:5883   */\n      add\n        /* \"#utility.yul\":5832:5893   */\n      tag_134\n      jump\t// in\n    tag_208:\n        /* \"#utility.yul\":5822:5893   */\n      swap3\n      pop\n        /* \"#utility.yul\":5778:5903   */\n      pop\n        /* \"#utility.yul\":5942:5944   */\n      0x20\n        /* \"#utility.yul\":5968:6021   */\n      tag_209\n        /* \"#utility.yul\":6013:6020   */\n      dup6\n        /* \"#utility.yul\":6004:6010   */\n      dup3\n        /* \"#utility.yul\":5993:6002   */\n      dup7\n        /* \"#utility.yul\":5989:6011   */\n      add\n        /* \"#utility.yul\":5968:6021   */\n      tag_130\n      jump\t// in\n    tag_209:\n        /* \"#utility.yul\":5958:6021   */\n      swap2\n      pop\n        /* \"#utility.yul\":5913:6031   */\n      pop\n        /* \"#utility.yul\":5548:6038   */\n      swap3\n      pop\n      swap3\n      swap1\n      pop\n      jump\t// out\n        /* \"#utility.yul\":6044:6603   */\n    tag_48:\n        /* \"#utility.yul\":6130:6136   */\n      0x00\n        /* \"#utility.yul\":6138:6144   */\n      dup1\n        /* \"#utility.yul\":6187:6189   */\n      0x20\n        /* \"#utility.yul\":6175:6184   */\n      dup4\n        /* \"#utility.yul\":6166:6173   */\n      dup6\n        /* \"#utility.yul\":6162:6185   */\n      sub\n        /* \"#utility.yul\":6158:6190   */\n      slt\n        /* \"#utility.yul\":6155:6274   */\n      iszero\n      tag_211\n      jumpi\n        /* \"#utility.yul\":6193:6272   */\n      tag_212\n      tag_117\n      jump\t// in\n    tag_212:\n        /* \"#utility.yul\":6155:6274   */\n    tag_211:\n        /* \"#utility.yul\":6341:6342   */\n      0x00\n        /* \"#utility.yul\":6330:6339   */\n      dup4\n        /* \"#utility.yul\":6326:6343   */\n      add\n        /* \"#utility.yul\":6313:6344   */\n      calldataload\n        /* \"#utility.yul\":6371:6389   */\n      0xffffffffffffffff\n        /* \"#utility.yul\":6363:6369   */\n      dup2\n        /* \"#utility.yul\":6360:6390   */\n      gt\n        /* \"#utility.yul\":6357:6474   */\n      iszero\n      tag_213\n      jumpi\n        /* \"#utility.yul\":6393:6472   */\n      tag_214\n      tag_118\n      jump\t// in\n    tag_214:\n        /* \"#utility.yul\":6357:6474   */\n    tag_213:\n        /* \"#utility.yul\":6506:6586   */\n      tag_215\n        /* \"#utility.yul\":6578:6585   */\n      dup6\n        /* \"#utility.yul\":6569:6575   */\n      dup3\n        /* \"#utility.yul\":6558:6567   */\n      dup7\n        /* \"#utility.yul\":6554:6576   */\n      add\n        /* \"#utility.yul\":6506:6586   */\n      tag_131\n      jump\t// in\n    tag_215:\n        /* \"#utility.yul\":6488:6586   */\n      swap3\n      pop\n      swap3\n      pop\n        /* \"#utility.yul\":6284:6596   */\n      pop\n        /* \"#utility.yul\":6044:6603   */\n      swap3\n      pop\n      swap3\n      swap1\n      pop\n      jump\t// out\n        /* \"#utility.yul\":6609:6789   */\n    tag_135:\n        /* \"#utility.yul\":6657:6734   */\n      0x4e487b7100000000000000000000000000000000000000000000000000000000\n        /* \"#utility.yul\":6654:6655   */\n      0x00\n        /* \"#utility.yul\":6647:6735   */\n      mstore\n        /* \"#utility.yul\":6754:6758   */\n      0x11\n        /* \"#utility.yul\":6751:6752   */\n      0x04\n        /* \"#utility.yul\":6744:6759   */\n      mstore\n        /* \"#utility.yul\":6778:6782   */\n      0x24\n        /* \"#utility.yul\":6775:6776   */\n      0x00\n        /* \"#utility.yul\":6768:6783   */\n      revert\n        /* \"#utility.yul\":6795:7143   */\n    tag_56:\n        /* \"#utility.yul\":6835:6842   */\n      0x00\n        /* \"#utility.yul\":6858:6878   */\n      tag_218\n        /* \"#utility.yul\":6876:6877   */\n      dup3\n        /* \"#utility.yul\":6858:6878   */\n      tag_123\n      jump\t// in\n    tag_218:\n        /* \"#utility.yul\":6853:6878   */\n      swap2\n      pop\n        /* \"#utility.yul\":6892:6912   */\n      tag_219\n        /* \"#utility.yul\":6910:6911   */\n      dup4\n        /* \"#utility.yul\":6892:6912   */\n      tag_123\n      jump\t// in\n    tag_219:\n        /* \"#utility.yul\":6887:6912   */\n      swap3\n      pop\n        /* \"#utility.yul\":7080:7081   */\n      dup2\n        /* \"#utility.yul\":7012:7078   */\n      0xffffffffffffffffffffffffffffffffffffffffffffffffffffffffffffffff\n        /* \"#utility.yul\":7008:7082   */\n      div\n        /* \"#utility.yul\":7005:7006   */\n      dup4\n        /* \"#utility.yul\":7002:7083   */\n      gt\n        /* \"#utility.yul\":6997:6998   */\n      dup3\n        /* \"#utility.yul\":6990:6999   */\n      iszero\n        /* \"#utility.yul\":6983:7000   */\n      iszero\n        /* \"#utility.yul\":6979:7084   */\n      and\n        /* \"#utility.yul\":6976:7107   */\n      iszero\n      tag_220\n      jumpi\n        /* \"#utility.yul\":7087:7105   */\n      tag_221\n      tag_135\n      jump\t// in\n    tag_221:\n        /* \"#utility.yul\":6976:7107   */\n    tag_220:\n        /* \"#utility.yul\":7135:7136   */\n      dup3\n        /* \"#utility.yul\":7132:7133   */\n      dup3\n        /* \"#utility.yul\":7128:7137   */\n      mul\n        /* \"#utility.yul\":7117:7137   */\n      swap1\n      pop\n        /* \"#utility.yul\":6795:7143   */\n      swap3\n      swap2\n      pop\n      pop\n      jump\t// out\n        /* \"#utility.yul\":7149:7318   */\n    tag_136:\n        /* \"#utility.yul\":7233:7244   */\n      0x00\n        /* \"#utility.yul\":7267:7273   */\n      dup3\n        /* \"#utility.yul\":7262:7265   */\n      dup3\n        /* \"#utility.yul\":7255:7274   */\n      mstore\n        /* \"#utility.yul\":7307:7311   */\n      0x20\n        /* \"#utility.yul\":7302:7305   */\n      dup3\n        /* \"#utility.yul\":7298:7312   */\n      add\n        /* \"#utility.yul\":7283:7312   */\n      swap1\n      pop\n        /* \"#utility.yul\":7149:7318   */\n      swap3\n      swap2\n      pop\n      pop\n      jump\t// out\n        /* \"#utility.yul\":7324:7483   */\n    tag_137:\n        /* \"#utility.yul\":7464:7475   */\n      0x4b6f20686f70206c650000000000000000000000000000000000000000000000\n        /* \"#utility.yul\":7460:7461   */\n      0x00\n        /* \"#utility.yul\":7452:7458   */\n      dup3\n        /* \"#utility.yul\":7448:7462   */\n      add\n        /* \"#utility.yul\":7441:7476   */\n      mstore\n        /* \"#utility.yul\":7324:7483   */\n      pop\n      jump\t// out\n        /* \"#utility.yul\":7489:7854   */\n    tag_138:\n        /* \"#utility.yul\":7631:7634   */\n      0x00\n        /* \"#utility.yul\":7652:7718   */\n      tag_225\n        /* \"#utility.yul\":7716:7717   */\n      0x09\n        /* \"#utility.yul\":7711:7714   */\n      dup4\n        /* \"#utility.yul\":7652:7718   */\n      tag_136\n      jump\t// in\n    tag_225:\n        /* \"#utility.yul\":7645:7718   */\n      swap2\n      pop\n        /* \"#utility.yul\":7727:7820   */\n      tag_226\n        /* \"#utility.yul\":7816:7819   */\n      dup3\n        /* \"#utility.yul\":7727:7820   */\n      tag_137\n      jump\t// in\n    tag_226:\n        /* \"#utility.yul\":7845:7847   */\n      0x20\n        /* \"#utility.yul\":7840:7843   */\n      dup3\n        /* \"#utility.yul\":7836:7848   */\n      add\n        /* \"#utility.yul\":7829:7848   */\n      swap1\n      pop\n        /* \"#utility.yul\":7489:7854   */\n      swap2\n      swap1\n      pop\n      jump\t// out\n        /* \"#utility.yul\":7860:8279   */\n    tag_59:\n        /* \"#utility.yul\":8026:8030   */\n      0x00\n        /* \"#utility.yul\":8064:8066   */\n      0x20\n        /* \"#utility.yul\":8053:8062   */\n      dup3\n        /* \"#utility.yul\":8049:8067   */\n      add\n        /* \"#utility.yul\":8041:8067   */\n      swap1\n      pop\n        /* \"#utility.yul\":8113:8122   */\n      dup2\n        /* \"#utility.yul\":8107:8111   */\n      dup2\n        /* \"#utility.yul\":8103:8123   */\n      sub\n        /* \"#utility.yul\":8099:8100   */\n      0x00\n        /* \"#utility.yul\":8088:8097   */\n      dup4\n        /* \"#utility.yul\":8084:8101   */\n      add\n        /* \"#utility.yul\":8077:8124   */\n      mstore\n        /* \"#utility.yul\":8141:8272   */\n      tag_228\n        /* \"#utility.yul\":8267:8271   */\n      dup2\n        /* \"#utility.yul\":8141:8272   */\n      tag_138\n      jump\t// in\n    tag_228:\n        /* \"#utility.yul\":8133:8272   */\n      swap1\n      pop\n        /* \"#utility.yul\":7860:8279   */\n      swap2\n      swap1\n      pop\n      jump\t// out\n        /* \"#utility.yul\":8285:8465   */\n    tag_67:\n        /* \"#utility.yul\":8333:8410   */\n      0x4e487b7100000000000000000000000000000000000000000000000000000000\n        /* \"#utility.yul\":8330:8331   */\n      0x00\n        /* \"#utility.yul\":8323:8411   */\n      mstore\n        /* \"#utility.yul\":8430:8434   */\n      0x32\n        /* \"#utility.yul\":8427:8428   */\n      0x04\n        /* \"#utility.yul\":8420:8435   */\n      mstore\n        /* \"#utility.yul\":8454:8458   */\n      0x24\n        /* \"#utility.yul\":8451:8452   */\n      0x00\n        /* \"#utility.yul\":8444:8459   */\n      revert\n        /* \"#utility.yul\":8471:8816   */\n    tag_69:\n        /* \"#utility.yul\":8538:8544   */\n      0x00\n        /* \"#utility.yul\":8587:8589   */\n      0x20\n        /* \"#utility.yul\":8575:8584   */\n      dup3\n        /* \"#utility.yul\":8566:8573   */\n      dup5\n        /* \"#utility.yul\":8562:8585   */\n      sub\n        /* \"#utility.yul\":8558:8590   */\n      slt\n        /* \"#utility.yul\":8555:8674   */\n      iszero\n      tag_231\n      jumpi\n        /* \"#utility.yul\":8593:8672   */\n      tag_232\n      tag_117\n      jump\t// in\n    tag_232:\n        /* \"#utility.yul\":8555:8674   */\n    tag_231:\n        /* \"#utility.yul\":8713:8714   */\n      0x00\n        /* \"#utility.yul\":8738:8799   */\n      tag_233\n        /* \"#utility.yul\":8791:8798   */\n      dup5\n        /* \"#utility.yul\":8782:8788   */\n      dup3\n        /* \"#utility.yul\":8771:8780   */\n      dup6\n        /* \"#utility.yul\":8767:8789   */\n      add\n        /* \"#utility.yul\":8738:8799   */\n      tag_134\n      jump\t// in\n    tag_233:\n        /* \"#utility.yul\":8728:8799   */\n      swap2\n      pop\n        /* \"#utility.yul\":8684:8809   */\n      pop\n        /* \"#utility.yul\":8471:8816   */\n      swap3\n      swap2\n      pop\n      pop\n      jump\t// out\n        /* \"#utility.yul\":8822:9055   */\n    tag_73:\n        /* \"#utility.yul\":8861:8864   */\n      0x00\n        /* \"#utility.yul\":8884:8908   */\n      tag_235\n        /* \"#utility.yul\":8902:8907   */\n      dup3\n        /* \"#utility.yul\":8884:8908   */\n      tag_123\n      jump\t// in\n    tag_235:\n        /* \"#utility.yul\":8875:8908   */\n      swap2\n      pop\n        /* \"#utility.yul\":8930:8996   */\n      0xffffffffffffffffffffffffffffffffffffffffffffffffffffffffffffffff\n        /* \"#utility.yul\":8923:8928   */\n      dup3\n        /* \"#utility.yul\":8920:8997   */\n      sub\n        /* \"#utility.yul\":8917:9020   */\n      tag_236\n      jumpi\n        /* \"#utility.yul\":9000:9018   */\n      tag_237\n      tag_135\n      jump\t// in\n    tag_237:\n        /* \"#utility.yul\":8917:9020   */\n    tag_236:\n        /* \"#utility.yul\":9047:9048   */\n      0x01\n        /* \"#utility.yul\":9040:9045   */\n      dup3\n        /* \"#utility.yul\":9036:9049   */\n      add\n        /* \"#utility.yul\":9029:9049   */\n      swap1\n      pop\n        /* \"#utility.yul\":8822:9055   */\n      swap2\n      swap1\n      pop\n      jump\t// out\n        /* \"#utility.yul\":9061:9366   */\n    tag_112:\n        /* \"#utility.yul\":9101:9104   */\n      0x00\n        /* \"#utility.yul\":9120:9140   */\n      tag_239\n        /* \"#utility.yul\":9138:9139   */\n      dup3\n        /* \"#utility.yul\":9120:9140   */\n      tag_123\n      jump\t// in\n    tag_239:\n        /* \"#utility.yul\":9115:9140   */\n      swap2\n      pop\n        /* \"#utility.yul\":9154:9174   */\n      tag_240\n        /* \"#utility.yul\":9172:9173   */\n      dup4\n        /* \"#utility.yul\":9154:9174   */\n      tag_123\n      jump\t// in\n    tag_240:\n        /* \"#utility.yul\":9149:9174   */\n      swap3\n      pop\n        /* \"#utility.yul\":9308:9309   */\n      dup3\n        /* \"#utility.yul\":9240:9306   */\n      0xffffffffffffffffffffffffffffffffffffffffffffffffffffffffffffffff\n        /* \"#utility.yul\":9236:9310   */\n      sub\n        /* \"#utility.yul\":9233:9234   */\n      dup3\n        /* \"#utility.yul\":9230:9311   */\n      gt\n        /* \"#utility.yul\":9227:9334   */\n      iszero\n      tag_241\n      jumpi\n        /* \"#utility.yul\":9314:9332   */\n      tag_242\n      tag_135\n      jump\t// in\n    tag_242:\n        /* \"#utility.yul\":9227:9334   */\n    tag_241:\n        /* \"#utility.yul\":9358:9359   */\n      dup3\n        /* \"#utility.yul\":9355:9356   */\n      dup3\n        /* \"#utility.yul\":9351:9360   */\n      add\n        /* \"#utility.yul\":9344:9360   */\n      swap1\n      pop\n        /* \"#utility.yul\":9061:9366   */\n      swap3\n      swap2\n      pop\n      pop\n      jump\t// out\n        /* \"#utility.yul\":9372:9563   */\n    tag_115:\n        /* \"#utility.yul\":9412:9416   */\n      0x00\n        /* \"#utility.yul\":9432:9452   */\n      tag_244\n        /* \"#utility.yul\":9450:9451   */\n      dup3\n        /* \"#utility.yul\":9432:9452   */\n      tag_123\n      jump\t// in\n    tag_244:\n        /* \"#utility.yul\":9427:9452   */\n      swap2\n      pop\n        /* \"#utility.yul\":9466:9486   */\n      tag_245\n        /* \"#utility.yul\":9484:9485   */\n      dup4\n        /* \"#utility.yul\":9466:9486   */\n      tag_123\n      jump\t// in\n    tag_245:\n        /* \"#utility.yul\":9461:9486   */\n      swap3\n      pop\n        /* \"#utility.yul\":9505:9506   */\n      dup3\n        /* \"#utility.yul\":9502:9503   */\n      dup3\n        /* \"#utility.yul\":9499:9507   */\n      lt\n        /* \"#utility.yul\":9496:9530   */\n      iszero\n      tag_246\n      jumpi\n        /* \"#utility.yul\":9510:9528   */\n      tag_247\n      tag_135\n      jump\t// in\n    tag_247:\n        /* \"#utility.yul\":9496:9530   */\n    tag_246:\n        /* \"#utility.yul\":9555:9556   */\n      dup3\n        /* \"#utility.yul\":9552:9553   */\n      dup3\n        /* \"#utility.yul\":9548:9557   */\n      sub\n        /* \"#utility.yul\":9540:9557   */\n      swap1\n      pop\n        /* \"#utility.yul\":9372:9563   */\n      swap3\n      swap2\n      pop\n      pop\n      jump\t// out\n\n    auxdata: 0xa26469706673582212204e782d45464b8cbccaa83c32115f065fa4753601ac7b33f663e3c880158ec41b64736f6c634300080d0033\n}\n",
				"bytecode": {
					"linkReferences": {},
					"object": "608060405234801561001057600080fd5b50610df5806100206000396000f3fe60806040526004361061007f5760003560e01c806366bd78fd1161004e57806366bd78fd146101075780637b1a490914610132578063abf038d01461014e578063ccb8c1e01461017957610086565b806306e99fef1461008857806327e235e3146100925780634e6e9ee1146100cf578063661978ed146100eb57610086565b3661008657005b005b6100906101b6565b005b34801561009e57600080fd5b506100b960048036038101906100b49190610897565b61024b565b6040516100c691906108dd565b60405180910390f35b6100e960048036038101906100e49190610989565b610263565b005b61010560048036038101906101009190610a3f565b610419565b005b34801561011357600080fd5b5061011c6105f9565b60405161012991906108dd565b60405180910390f35b61014c60048036038101906101479190610afe565b610601565b005b34801561015a57600080fd5b50610163610760565b60405161017091906108dd565b60405180910390f35b34801561018557600080fd5b506101a0600480360381019061019b9190610b3e565b6107a6565b6040516101ad91906108dd565b60405180910390f35b610207346000803373ffffffffffffffffffffffffffffffffffffffff1673ffffffffffffffffffffffffffffffffffffffff1681526020019081526020016000205461080390919063ffffffff16565b6000803373ffffffffffffffffffffffffffffffffffffffff1673ffffffffffffffffffffffffffffffffffffffff16815260200190815260200160002081905550565b60006020528060005260406000206000915090505481565b6000803373ffffffffffffffffffffffffffffffffffffffff1673ffffffffffffffffffffffffffffffffffffffff1681526020019081526020016000205481848490506102b19190610bba565b106102f1576040517f08c379a00000000000000000000000000000000000000000000000000000000081526004016102e890610c71565b60405180910390fd5b60005b8383905081101561041357610350826000803373ffffffffffffffffffffffffffffffffffffffff1673ffffffffffffffffffffffffffffffffffffffff1681526020019081526020016000205461081990919063ffffffff16565b6000803373ffffffffffffffffffffffffffffffffffffffff1673ffffffffffffffffffffffffffffffffffffffff168152602001908152602001600020819055508383828181106103a5576103a4610c91565b5b90506020020160208101906103ba9190610cc0565b73ffffffffffffffffffffffffffffffffffffffff166108fc839081150290604051600060405180830381858888f193505050501580156103ff573d6000803e3d6000fd5b50808061040b90610ced565b9150506102f4565b50505050565b6000848490501161042957600080fd5b6000828290501161043957600080fd5b81819050848490501461044b57600080fd5b6000803373ffffffffffffffffffffffffffffffffffffffff1673ffffffffffffffffffffffffffffffffffffffff1681526020019081526020016000205461049483836107a6565b1061049e57600080fd5b60005b848490508110156105f2576105168383838181106104c2576104c1610c91565b5b905060200201356000803373ffffffffffffffffffffffffffffffffffffffff1673ffffffffffffffffffffffffffffffffffffffff1681526020019081526020016000205461081990919063ffffffff16565b6000803373ffffffffffffffffffffffffffffffffffffffff1673ffffffffffffffffffffffffffffffffffffffff1681526020019081526020016000208190555084848281811061056b5761056a610c91565b5b90506020020160208101906105809190610cc0565b73ffffffffffffffffffffffffffffffffffffffff166108fc8484848181106105ac576105ab610c91565b5b905060200201359081150290604051600060405180830381858888f193505050501580156105de573d6000803e3d6000fd5b5080806105ea90610ced565b9150506104a1565b5050505050565b600047905090565b806000803373ffffffffffffffffffffffffffffffffffffffff1673ffffffffffffffffffffffffffffffffffffffff168152602001908152602001600020541015610682576040517f08c379a000000000000000000000000000000000000000000000000000000000815260040161067990610c71565b60405180910390fd5b6106d3816000803373ffffffffffffffffffffffffffffffffffffffff1673ffffffffffffffffffffffffffffffffffffffff1681526020019081526020016000205461081990919063ffffffff16565b6000803373ffffffffffffffffffffffffffffffffffffffff1673ffffffffffffffffffffffffffffffffffffffff168152602001908152602001600020819055508173ffffffffffffffffffffffffffffffffffffffff166108fc829081150290604051600060405180830381858888f1935050505015801561075b573d6000803e3d6000fd5b505050565b60008060003373ffffffffffffffffffffffffffffffffffffffff1673ffffffffffffffffffffffffffffffffffffffff16815260200190815260200160002054905090565b60008060005b848490508110156107f8576107e38585838181106107cd576107cc610c91565b5b905060200201358361080390919063ffffffff16565b915080806107f090610ced565b9150506107ac565b508091505092915050565b600081836108119190610d35565b905092915050565b600081836108279190610d8b565b905092915050565b600080fd5b600080fd5b600073ffffffffffffffffffffffffffffffffffffffff82169050919050565b600061086482610839565b9050919050565b61087481610859565b811461087f57600080fd5b50565b6000813590506108918161086b565b92915050565b6000602082840312156108ad576108ac61082f565b5b60006108bb84828501610882565b91505092915050565b6000819050919050565b6108d7816108c4565b82525050565b60006020820190506108f260008301846108ce565b92915050565b600080fd5b600080fd5b600080fd5b60008083601f84011261091d5761091c6108f8565b5b8235905067ffffffffffffffff81111561093a576109396108fd565b5b60208301915083602082028301111561095657610955610902565b5b9250929050565b610966816108c4565b811461097157600080fd5b50565b6000813590506109838161095d565b92915050565b6000806000604084860312156109a2576109a161082f565b5b600084013567ffffffffffffffff8111156109c0576109bf610834565b5b6109cc86828701610907565b935093505060206109df86828701610974565b9150509250925092565b60008083601f8401126109ff576109fe6108f8565b5b8235905067ffffffffffffffff811115610a1c57610a1b6108fd565b5b602083019150836020820283011115610a3857610a37610902565b5b9250929050565b60008060008060408587031215610a5957610a5861082f565b5b600085013567ffffffffffffffff811115610a7757610a76610834565b5b610a8387828801610907565b9450945050602085013567ffffffffffffffff811115610aa657610aa5610834565b5b610ab2878288016109e9565b925092505092959194509250565b6000610acb82610839565b9050919050565b610adb81610ac0565b8114610ae657600080fd5b50565b600081359050610af881610ad2565b92915050565b60008060408385031215610b1557610b1461082f565b5b6000610b2385828601610ae9565b9250506020610b3485828601610974565b9150509250929050565b60008060208385031215610b5557610b5461082f565b5b600083013567ffffffffffffffff811115610b7357610b72610834565b5b610b7f858286016109e9565b92509250509250929050565b7f4e487b7100000000000000000000000000000000000000000000000000000000600052601160045260246000fd5b6000610bc5826108c4565b9150610bd0836108c4565b9250817fffffffffffffffffffffffffffffffffffffffffffffffffffffffffffffffff0483118215151615610c0957610c08610b8b565b5b828202905092915050565b600082825260208201905092915050565b7f4b6f20686f70206c650000000000000000000000000000000000000000000000600082015250565b6000610c5b600983610c14565b9150610c6682610c25565b602082019050919050565b60006020820190508181036000830152610c8a81610c4e565b9050919050565b7f4e487b7100000000000000000000000000000000000000000000000000000000600052603260045260246000fd5b600060208284031215610cd657610cd561082f565b5b6000610ce484828501610ae9565b91505092915050565b6000610cf8826108c4565b91507fffffffffffffffffffffffffffffffffffffffffffffffffffffffffffffffff8203610d2a57610d29610b8b565b5b600182019050919050565b6000610d40826108c4565b9150610d4b836108c4565b9250827fffffffffffffffffffffffffffffffffffffffffffffffffffffffffffffffff03821115610d8057610d7f610b8b565b5b828201905092915050565b6000610d96826108c4565b9150610da1836108c4565b925082821015610db457610db3610b8b565b5b82820390509291505056fea26469706673582212204e782d45464b8cbccaa83c32115f065fa4753601ac7b33f663e3c880158ec41b64736f6c634300080d0033",
					"opcodes": "PUSH1 0x80 PUSH1 0x40 MSTORE CALLVALUE DUP1 ISZERO PUSH2 0x10 JUMPI PUSH1 0x0 DUP1 REVERT JUMPDEST POP PUSH2 0xDF5 DUP1 PUSH2 0x20 PUSH1 0x0 CODECOPY PUSH1 0x0 RETURN INVALID PUSH1 0x80 PUSH1 0x40 MSTORE PUSH1 0x4 CALLDATASIZE LT PUSH2 0x7F JUMPI PUSH1 0x0 CALLDATALOAD PUSH1 0xE0 SHR DUP1 PUSH4 0x66BD78FD GT PUSH2 0x4E JUMPI DUP1 PUSH4 0x66BD78FD EQ PUSH2 0x107 JUMPI DUP1 PUSH4 0x7B1A4909 EQ PUSH2 0x132 JUMPI DUP1 PUSH4 0xABF038D0 EQ PUSH2 0x14E JUMPI DUP1 PUSH4 0xCCB8C1E0 EQ PUSH2 0x179 JUMPI PUSH2 0x86 JUMP JUMPDEST DUP1 PUSH4 0x6E99FEF EQ PUSH2 0x88 JUMPI DUP1 PUSH4 0x27E235E3 EQ PUSH2 0x92 JUMPI DUP1 PUSH4 0x4E6E9EE1 EQ PUSH2 0xCF JUMPI DUP1 PUSH4 0x661978ED EQ PUSH2 0xEB JUMPI PUSH2 0x86 JUMP JUMPDEST CALLDATASIZE PUSH2 0x86 JUMPI STOP JUMPDEST STOP JUMPDEST PUSH2 0x90 PUSH2 0x1B6 JUMP JUMPDEST STOP JUMPDEST CALLVALUE DUP1 ISZERO PUSH2 0x9E JUMPI PUSH1 0x0 DUP1 REVERT JUMPDEST POP PUSH2 0xB9 PUSH1 0x4 DUP1 CALLDATASIZE SUB DUP2 ADD SWAP1 PUSH2 0xB4 SWAP2 SWAP1 PUSH2 0x897 JUMP JUMPDEST PUSH2 0x24B JUMP JUMPDEST PUSH1 0x40 MLOAD PUSH2 0xC6 SWAP2 SWAP1 PUSH2 0x8DD JUMP JUMPDEST PUSH1 0x40 MLOAD DUP1 SWAP2 SUB SWAP1 RETURN JUMPDEST PUSH2 0xE9 PUSH1 0x4 DUP1 CALLDATASIZE SUB DUP2 ADD SWAP1 PUSH2 0xE4 SWAP2 SWAP1 PUSH2 0x989 JUMP JUMPDEST PUSH2 0x263 JUMP JUMPDEST STOP JUMPDEST PUSH2 0x105 PUSH1 0x4 DUP1 CALLDATASIZE SUB DUP2 ADD SWAP1 PUSH2 0x100 SWAP2 SWAP1 PUSH2 0xA3F JUMP JUMPDEST PUSH2 0x419 JUMP JUMPDEST STOP JUMPDEST CALLVALUE DUP1 ISZERO PUSH2 0x113 JUMPI PUSH1 0x0 DUP1 REVERT JUMPDEST POP PUSH2 0x11C PUSH2 0x5F9 JUMP JUMPDEST PUSH1 0x40 MLOAD PUSH2 0x129 SWAP2 SWAP1 PUSH2 0x8DD JUMP JUMPDEST PUSH1 0x40 MLOAD DUP1 SWAP2 SUB SWAP1 RETURN JUMPDEST PUSH2 0x14C PUSH1 0x4 DUP1 CALLDATASIZE SUB DUP2 ADD SWAP1 PUSH2 0x147 SWAP2 SWAP1 PUSH2 0xAFE JUMP JUMPDEST PUSH2 0x601 JUMP JUMPDEST STOP JUMPDEST CALLVALUE DUP1 ISZERO PUSH2 0x15A JUMPI PUSH1 0x0 DUP1 REVERT JUMPDEST POP PUSH2 0x163 PUSH2 0x760 JUMP JUMPDEST PUSH1 0x40 MLOAD PUSH2 0x170 SWAP2 SWAP1 PUSH2 0x8DD JUMP JUMPDEST PUSH1 0x40 MLOAD DUP1 SWAP2 SUB SWAP1 RETURN JUMPDEST CALLVALUE DUP1 ISZERO PUSH2 0x185 JUMPI PUSH1 0x0 DUP1 REVERT JUMPDEST POP PUSH2 0x1A0 PUSH1 0x4 DUP1 CALLDATASIZE SUB DUP2 ADD SWAP1 PUSH2 0x19B SWAP2 SWAP1 PUSH2 0xB3E JUMP JUMPDEST PUSH2 0x7A6 JUMP JUMPDEST PUSH1 0x40 MLOAD PUSH2 0x1AD SWAP2 SWAP1 PUSH2 0x8DD JUMP JUMPDEST PUSH1 0x40 MLOAD DUP1 SWAP2 SUB SWAP1 RETURN JUMPDEST PUSH2 0x207 CALLVALUE PUSH1 0x0 DUP1 CALLER PUSH20 0xFFFFFFFFFFFFFFFFFFFFFFFFFFFFFFFFFFFFFFFF AND PUSH20 0xFFFFFFFFFFFFFFFFFFFFFFFFFFFFFFFFFFFFFFFF AND DUP2 MSTORE PUSH1 0x20 ADD SWAP1 DUP2 MSTORE PUSH1 0x20 ADD PUSH1 0x0 KECCAK256 SLOAD PUSH2 0x803 SWAP1 SWAP2 SWAP1 PUSH4 0xFFFFFFFF AND JUMP JUMPDEST PUSH1 0x0 DUP1 CALLER PUSH20 0xFFFFFFFFFFFFFFFFFFFFFFFFFFFFFFFFFFFFFFFF AND PUSH20 0xFFFFFFFFFFFFFFFFFFFFFFFFFFFFFFFFFFFFFFFF AND DUP2 MSTORE PUSH1 0x20 ADD SWAP1 DUP2 MSTORE PUSH1 0x20 ADD PUSH1 0x0 KECCAK256 DUP2 SWAP1 SSTORE POP JUMP JUMPDEST PUSH1 0x0 PUSH1 0x20 MSTORE DUP1 PUSH1 0x0 MSTORE PUSH1 0x40 PUSH1 0x0 KECCAK256 PUSH1 0x0 SWAP2 POP SWAP1 POP SLOAD DUP2 JUMP JUMPDEST PUSH1 0x0 DUP1 CALLER PUSH20 0xFFFFFFFFFFFFFFFFFFFFFFFFFFFFFFFFFFFFFFFF AND PUSH20 0xFFFFFFFFFFFFFFFFFFFFFFFFFFFFFFFFFFFFFFFF AND DUP2 MSTORE PUSH1 0x20 ADD SWAP1 DUP2 MSTORE PUSH1 0x20 ADD PUSH1 0x0 KECCAK256 SLOAD DUP2 DUP5 DUP5 SWAP1 POP PUSH2 0x2B1 SWAP2 SWAP1 PUSH2 0xBBA JUMP JUMPDEST LT PUSH2 0x2F1 JUMPI PUSH1 0x40 MLOAD PUSH32 0x8C379A000000000000000000000000000000000000000000000000000000000 DUP2 MSTORE PUSH1 0x4 ADD PUSH2 0x2E8 SWAP1 PUSH2 0xC71 JUMP JUMPDEST PUSH1 0x40 MLOAD DUP1 SWAP2 SUB SWAP1 REVERT JUMPDEST PUSH1 0x0 JUMPDEST DUP4 DUP4 SWAP1 POP DUP2 LT ISZERO PUSH2 0x413 JUMPI PUSH2 0x350 DUP3 PUSH1 0x0 DUP1 CALLER PUSH20 0xFFFFFFFFFFFFFFFFFFFFFFFFFFFFFFFFFFFFFFFF AND PUSH20 0xFFFFFFFFFFFFFFFFFFFFFFFFFFFFFFFFFFFFFFFF AND DUP2 MSTORE PUSH1 0x20 ADD SWAP1 DUP2 MSTORE PUSH1 0x20 ADD PUSH1 0x0 KECCAK256 SLOAD PUSH2 0x819 SWAP1 SWAP2 SWAP1 PUSH4 0xFFFFFFFF AND JUMP JUMPDEST PUSH1 0x0 DUP1 CALLER PUSH20 0xFFFFFFFFFFFFFFFFFFFFFFFFFFFFFFFFFFFFFFFF AND PUSH20 0xFFFFFFFFFFFFFFFFFFFFFFFFFFFFFFFFFFFFFFFF AND DUP2 MSTORE PUSH1 0x20 ADD SWAP1 DUP2 MSTORE PUSH1 0x20 ADD PUSH1 0x0 KECCAK256 DUP2 SWAP1 SSTORE POP DUP4 DUP4 DUP3 DUP2 DUP2 LT PUSH2 0x3A5 JUMPI PUSH2 0x3A4 PUSH2 0xC91 JUMP JUMPDEST JUMPDEST SWAP1 POP PUSH1 0x20 MUL ADD PUSH1 0x20 DUP2 ADD SWAP1 PUSH2 0x3BA SWAP2 SWAP1 PUSH2 0xCC0 JUMP JUMPDEST PUSH20 0xFFFFFFFFFFFFFFFFFFFFFFFFFFFFFFFFFFFFFFFF AND PUSH2 0x8FC DUP4 SWAP1 DUP2 ISZERO MUL SWAP1 PUSH1 0x40 MLOAD PUSH1 0x0 PUSH1 0x40 MLOAD DUP1 DUP4 SUB DUP2 DUP6 DUP9 DUP9 CALL SWAP4 POP POP POP POP ISZERO DUP1 ISZERO PUSH2 0x3FF JUMPI RETURNDATASIZE PUSH1 0x0 DUP1 RETURNDATACOPY RETURNDATASIZE PUSH1 0x0 REVERT JUMPDEST POP DUP1 DUP1 PUSH2 0x40B SWAP1 PUSH2 0xCED JUMP JUMPDEST SWAP2 POP POP PUSH2 0x2F4 JUMP JUMPDEST POP POP POP POP JUMP JUMPDEST PUSH1 0x0 DUP5 DUP5 SWAP1 POP GT PUSH2 0x429 JUMPI PUSH1 0x0 DUP1 REVERT JUMPDEST PUSH1 0x0 DUP3 DUP3 SWAP1 POP GT PUSH2 0x439 JUMPI PUSH1 0x0 DUP1 REVERT JUMPDEST DUP2 DUP2 SWAP1 POP DUP5 DUP5 SWAP1 POP EQ PUSH2 0x44B JUMPI PUSH1 0x0 DUP1 REVERT JUMPDEST PUSH1 0x0 DUP1 CALLER PUSH20 0xFFFFFFFFFFFFFFFFFFFFFFFFFFFFFFFFFFFFFFFF AND PUSH20 0xFFFFFFFFFFFFFFFFFFFFFFFFFFFFFFFFFFFFFFFF AND DUP2 MSTORE PUSH1 0x20 ADD SWAP1 DUP2 MSTORE PUSH1 0x20 ADD PUSH1 0x0 KECCAK256 SLOAD PUSH2 0x494 DUP4 DUP4 PUSH2 0x7A6 JUMP JUMPDEST LT PUSH2 0x49E JUMPI PUSH1 0x0 DUP1 REVERT JUMPDEST PUSH1 0x0 JUMPDEST DUP5 DUP5 SWAP1 POP DUP2 LT ISZERO PUSH2 0x5F2 JUMPI PUSH2 0x516 DUP4 DUP4 DUP4 DUP2 DUP2 LT PUSH2 0x4C2 JUMPI PUSH2 0x4C1 PUSH2 0xC91 JUMP JUMPDEST JUMPDEST SWAP1 POP PUSH1 0x20 MUL ADD CALLDATALOAD PUSH1 0x0 DUP1 CALLER PUSH20 0xFFFFFFFFFFFFFFFFFFFFFFFFFFFFFFFFFFFFFFFF AND PUSH20 0xFFFFFFFFFFFFFFFFFFFFFFFFFFFFFFFFFFFFFFFF AND DUP2 MSTORE PUSH1 0x20 ADD SWAP1 DUP2 MSTORE PUSH1 0x20 ADD PUSH1 0x0 KECCAK256 SLOAD PUSH2 0x819 SWAP1 SWAP2 SWAP1 PUSH4 0xFFFFFFFF AND JUMP JUMPDEST PUSH1 0x0 DUP1 CALLER PUSH20 0xFFFFFFFFFFFFFFFFFFFFFFFFFFFFFFFFFFFFFFFF AND PUSH20 0xFFFFFFFFFFFFFFFFFFFFFFFFFFFFFFFFFFFFFFFF AND DUP2 MSTORE PUSH1 0x20 ADD SWAP1 DUP2 MSTORE PUSH1 0x20 ADD PUSH1 0x0 KECCAK256 DUP2 SWAP1 SSTORE POP DUP5 DUP5 DUP3 DUP2 DUP2 LT PUSH2 0x56B JUMPI PUSH2 0x56A PUSH2 0xC91 JUMP JUMPDEST JUMPDEST SWAP1 POP PUSH1 0x20 MUL ADD PUSH1 0x20 DUP2 ADD SWAP1 PUSH2 0x580 SWAP2 SWAP1 PUSH2 0xCC0 JUMP JUMPDEST PUSH20 0xFFFFFFFFFFFFFFFFFFFFFFFFFFFFFFFFFFFFFFFF AND PUSH2 0x8FC DUP5 DUP5 DUP5 DUP2 DUP2 LT PUSH2 0x5AC JUMPI PUSH2 0x5AB PUSH2 0xC91 JUMP JUMPDEST JUMPDEST SWAP1 POP PUSH1 0x20 MUL ADD CALLDATALOAD SWAP1 DUP2 ISZERO MUL SWAP1 PUSH1 0x40 MLOAD PUSH1 0x0 PUSH1 0x40 MLOAD DUP1 DUP4 SUB DUP2 DUP6 DUP9 DUP9 CALL SWAP4 POP POP POP POP ISZERO DUP1 ISZERO PUSH2 0x5DE JUMPI RETURNDATASIZE PUSH1 0x0 DUP1 RETURNDATACOPY RETURNDATASIZE PUSH1 0x0 REVERT JUMPDEST POP DUP1 DUP1 PUSH2 0x5EA SWAP1 PUSH2 0xCED JUMP JUMPDEST SWAP2 POP POP PUSH2 0x4A1 JUMP JUMPDEST POP POP POP POP POP JUMP JUMPDEST PUSH1 0x0 SELFBALANCE SWAP1 POP SWAP1 JUMP JUMPDEST DUP1 PUSH1 0x0 DUP1 CALLER PUSH20 0xFFFFFFFFFFFFFFFFFFFFFFFFFFFFFFFFFFFFFFFF AND PUSH20 0xFFFFFFFFFFFFFFFFFFFFFFFFFFFFFFFFFFFFFFFF AND DUP2 MSTORE PUSH1 0x20 ADD SWAP1 DUP2 MSTORE PUSH1 0x20 ADD PUSH1 0x0 KECCAK256 SLOAD LT ISZERO PUSH2 0x682 JUMPI PUSH1 0x40 MLOAD PUSH32 0x8C379A000000000000000000000000000000000000000000000000000000000 DUP2 MSTORE PUSH1 0x4 ADD PUSH2 0x679 SWAP1 PUSH2 0xC71 JUMP JUMPDEST PUSH1 0x40 MLOAD DUP1 SWAP2 SUB SWAP1 REVERT JUMPDEST PUSH2 0x6D3 DUP2 PUSH1 0x0 DUP1 CALLER PUSH20 0xFFFFFFFFFFFFFFFFFFFFFFFFFFFFFFFFFFFFFFFF AND PUSH20 0xFFFFFFFFFFFFFFFFFFFFFFFFFFFFFFFFFFFFFFFF AND DUP2 MSTORE PUSH1 0x20 ADD SWAP1 DUP2 MSTORE PUSH1 0x20 ADD PUSH1 0x0 KECCAK256 SLOAD PUSH2 0x819 SWAP1 SWAP2 SWAP1 PUSH4 0xFFFFFFFF AND JUMP JUMPDEST PUSH1 0x0 DUP1 CALLER PUSH20 0xFFFFFFFFFFFFFFFFFFFFFFFFFFFFFFFFFFFFFFFF AND PUSH20 0xFFFFFFFFFFFFFFFFFFFFFFFFFFFFFFFFFFFFFFFF AND DUP2 MSTORE PUSH1 0x20 ADD SWAP1 DUP2 MSTORE PUSH1 0x20 ADD PUSH1 0x0 KECCAK256 DUP2 SWAP1 SSTORE POP DUP2 PUSH20 0xFFFFFFFFFFFFFFFFFFFFFFFFFFFFFFFFFFFFFFFF AND PUSH2 0x8FC DUP3 SWAP1 DUP2 ISZERO MUL SWAP1 PUSH1 0x40 MLOAD PUSH1 0x0 PUSH1 0x40 MLOAD DUP1 DUP4 SUB DUP2 DUP6 DUP9 DUP9 CALL SWAP4 POP POP POP POP ISZERO DUP1 ISZERO PUSH2 0x75B JUMPI RETURNDATASIZE PUSH1 0x0 DUP1 RETURNDATACOPY RETURNDATASIZE PUSH1 0x0 REVERT JUMPDEST POP POP POP JUMP JUMPDEST PUSH1 0x0 DUP1 PUSH1 0x0 CALLER PUSH20 0xFFFFFFFFFFFFFFFFFFFFFFFFFFFFFFFFFFFFFFFF AND PUSH20 0xFFFFFFFFFFFFFFFFFFFFFFFFFFFFFFFFFFFFFFFF AND DUP2 MSTORE PUSH1 0x20 ADD SWAP1 DUP2 MSTORE PUSH1 0x20 ADD PUSH1 0x0 KECCAK256 SLOAD SWAP1 POP SWAP1 JUMP JUMPDEST PUSH1 0x0 DUP1 PUSH1 0x0 JUMPDEST DUP5 DUP5 SWAP1 POP DUP2 LT ISZERO PUSH2 0x7F8 JUMPI PUSH2 0x7E3 DUP6 DUP6 DUP4 DUP2 DUP2 LT PUSH2 0x7CD JUMPI PUSH2 0x7CC PUSH2 0xC91 JUMP JUMPDEST JUMPDEST SWAP1 POP PUSH1 0x20 MUL ADD CALLDATALOAD DUP4 PUSH2 0x803 SWAP1 SWAP2 SWAP1 PUSH4 0xFFFFFFFF AND JUMP JUMPDEST SWAP2 POP DUP1 DUP1 PUSH2 0x7F0 SWAP1 PUSH2 0xCED JUMP JUMPDEST SWAP2 POP POP PUSH2 0x7AC JUMP JUMPDEST POP DUP1 SWAP2 POP POP SWAP3 SWAP2 POP POP JUMP JUMPDEST PUSH1 0x0 DUP2 DUP4 PUSH2 0x811 SWAP2 SWAP1 PUSH2 0xD35 JUMP JUMPDEST SWAP1 POP SWAP3 SWAP2 POP POP JUMP JUMPDEST PUSH1 0x0 DUP2 DUP4 PUSH2 0x827 SWAP2 SWAP1 PUSH2 0xD8B JUMP JUMPDEST SWAP1 POP SWAP3 SWAP2 POP POP JUMP JUMPDEST PUSH1 0x0 DUP1 REVERT JUMPDEST PUSH1 0x0 DUP1 REVERT JUMPDEST PUSH1 0x0 PUSH20 0xFFFFFFFFFFFFFFFFFFFFFFFFFFFFFFFFFFFFFFFF DUP3 AND SWAP1 POP SWAP2 SWAP1 POP JUMP JUMPDEST PUSH1 0x0 PUSH2 0x864 DUP3 PUSH2 0x839 JUMP JUMPDEST SWAP1 POP SWAP2 SWAP1 POP JUMP JUMPDEST PUSH2 0x874 DUP2 PUSH2 0x859 JUMP JUMPDEST DUP2 EQ PUSH2 0x87F JUMPI PUSH1 0x0 DUP1 REVERT JUMPDEST POP JUMP JUMPDEST PUSH1 0x0 DUP2 CALLDATALOAD SWAP1 POP PUSH2 0x891 DUP2 PUSH2 0x86B JUMP JUMPDEST SWAP3 SWAP2 POP POP JUMP JUMPDEST PUSH1 0x0 PUSH1 0x20 DUP3 DUP5 SUB SLT ISZERO PUSH2 0x8AD JUMPI PUSH2 0x8AC PUSH2 0x82F JUMP JUMPDEST JUMPDEST PUSH1 0x0 PUSH2 0x8BB DUP5 DUP3 DUP6 ADD PUSH2 0x882 JUMP JUMPDEST SWAP2 POP POP SWAP3 SWAP2 POP POP JUMP JUMPDEST PUSH1 0x0 DUP2 SWAP1 POP SWAP2 SWAP1 POP JUMP JUMPDEST PUSH2 0x8D7 DUP2 PUSH2 0x8C4 JUMP JUMPDEST DUP3 MSTORE POP POP JUMP JUMPDEST PUSH1 0x0 PUSH1 0x20 DUP3 ADD SWAP1 POP PUSH2 0x8F2 PUSH1 0x0 DUP4 ADD DUP5 PUSH2 0x8CE JUMP JUMPDEST SWAP3 SWAP2 POP POP JUMP JUMPDEST PUSH1 0x0 DUP1 REVERT JUMPDEST PUSH1 0x0 DUP1 REVERT JUMPDEST PUSH1 0x0 DUP1 REVERT JUMPDEST PUSH1 0x0 DUP1 DUP4 PUSH1 0x1F DUP5 ADD SLT PUSH2 0x91D JUMPI PUSH2 0x91C PUSH2 0x8F8 JUMP JUMPDEST JUMPDEST DUP3 CALLDATALOAD SWAP1 POP PUSH8 0xFFFFFFFFFFFFFFFF DUP2 GT ISZERO PUSH2 0x93A JUMPI PUSH2 0x939 PUSH2 0x8FD JUMP JUMPDEST JUMPDEST PUSH1 0x20 DUP4 ADD SWAP2 POP DUP4 PUSH1 0x20 DUP3 MUL DUP4 ADD GT ISZERO PUSH2 0x956 JUMPI PUSH2 0x955 PUSH2 0x902 JUMP JUMPDEST JUMPDEST SWAP3 POP SWAP3 SWAP1 POP JUMP JUMPDEST PUSH2 0x966 DUP2 PUSH2 0x8C4 JUMP JUMPDEST DUP2 EQ PUSH2 0x971 JUMPI PUSH1 0x0 DUP1 REVERT JUMPDEST POP JUMP JUMPDEST PUSH1 0x0 DUP2 CALLDATALOAD SWAP1 POP PUSH2 0x983 DUP2 PUSH2 0x95D JUMP JUMPDEST SWAP3 SWAP2 POP POP JUMP JUMPDEST PUSH1 0x0 DUP1 PUSH1 0x0 PUSH1 0x40 DUP5 DUP7 SUB SLT ISZERO PUSH2 0x9A2 JUMPI PUSH2 0x9A1 PUSH2 0x82F JUMP JUMPDEST JUMPDEST PUSH1 0x0 DUP5 ADD CALLDATALOAD PUSH8 0xFFFFFFFFFFFFFFFF DUP2 GT ISZERO PUSH2 0x9C0 JUMPI PUSH2 0x9BF PUSH2 0x834 JUMP JUMPDEST JUMPDEST PUSH2 0x9CC DUP7 DUP3 DUP8 ADD PUSH2 0x907 JUMP JUMPDEST SWAP4 POP SWAP4 POP POP PUSH1 0x20 PUSH2 0x9DF DUP7 DUP3 DUP8 ADD PUSH2 0x974 JUMP JUMPDEST SWAP2 POP POP SWAP3 POP SWAP3 POP SWAP3 JUMP JUMPDEST PUSH1 0x0 DUP1 DUP4 PUSH1 0x1F DUP5 ADD SLT PUSH2 0x9FF JUMPI PUSH2 0x9FE PUSH2 0x8F8 JUMP JUMPDEST JUMPDEST DUP3 CALLDATALOAD SWAP1 POP PUSH8 0xFFFFFFFFFFFFFFFF DUP2 GT ISZERO PUSH2 0xA1C JUMPI PUSH2 0xA1B PUSH2 0x8FD JUMP JUMPDEST JUMPDEST PUSH1 0x20 DUP4 ADD SWAP2 POP DUP4 PUSH1 0x20 DUP3 MUL DUP4 ADD GT ISZERO PUSH2 0xA38 JUMPI PUSH2 0xA37 PUSH2 0x902 JUMP JUMPDEST JUMPDEST SWAP3 POP SWAP3 SWAP1 POP JUMP JUMPDEST PUSH1 0x0 DUP1 PUSH1 0x0 DUP1 PUSH1 0x40 DUP6 DUP8 SUB SLT ISZERO PUSH2 0xA59 JUMPI PUSH2 0xA58 PUSH2 0x82F JUMP JUMPDEST JUMPDEST PUSH1 0x0 DUP6 ADD CALLDATALOAD PUSH8 0xFFFFFFFFFFFFFFFF DUP2 GT ISZERO PUSH2 0xA77 JUMPI PUSH2 0xA76 PUSH2 0x834 JUMP JUMPDEST JUMPDEST PUSH2 0xA83 DUP8 DUP3 DUP9 ADD PUSH2 0x907 JUMP JUMPDEST SWAP5 POP SWAP5 POP POP PUSH1 0x20 DUP6 ADD CALLDATALOAD PUSH8 0xFFFFFFFFFFFFFFFF DUP2 GT ISZERO PUSH2 0xAA6 JUMPI PUSH2 0xAA5 PUSH2 0x834 JUMP JUMPDEST JUMPDEST PUSH2 0xAB2 DUP8 DUP3 DUP9 ADD PUSH2 0x9E9 JUMP JUMPDEST SWAP3 POP SWAP3 POP POP SWAP3 SWAP6 SWAP2 SWAP5 POP SWAP3 POP JUMP JUMPDEST PUSH1 0x0 PUSH2 0xACB DUP3 PUSH2 0x839 JUMP JUMPDEST SWAP1 POP SWAP2 SWAP1 POP JUMP JUMPDEST PUSH2 0xADB DUP2 PUSH2 0xAC0 JUMP JUMPDEST DUP2 EQ PUSH2 0xAE6 JUMPI PUSH1 0x0 DUP1 REVERT JUMPDEST POP JUMP JUMPDEST PUSH1 0x0 DUP2 CALLDATALOAD SWAP1 POP PUSH2 0xAF8 DUP2 PUSH2 0xAD2 JUMP JUMPDEST SWAP3 SWAP2 POP POP JUMP JUMPDEST PUSH1 0x0 DUP1 PUSH1 0x40 DUP4 DUP6 SUB SLT ISZERO PUSH2 0xB15 JUMPI PUSH2 0xB14 PUSH2 0x82F JUMP JUMPDEST JUMPDEST PUSH1 0x0 PUSH2 0xB23 DUP6 DUP3 DUP7 ADD PUSH2 0xAE9 JUMP JUMPDEST SWAP3 POP POP PUSH1 0x20 PUSH2 0xB34 DUP6 DUP3 DUP7 ADD PUSH2 0x974 JUMP JUMPDEST SWAP2 POP POP SWAP3 POP SWAP3 SWAP1 POP JUMP JUMPDEST PUSH1 0x0 DUP1 PUSH1 0x20 DUP4 DUP6 SUB SLT ISZERO PUSH2 0xB55 JUMPI PUSH2 0xB54 PUSH2 0x82F JUMP JUMPDEST JUMPDEST PUSH1 0x0 DUP4 ADD CALLDATALOAD PUSH8 0xFFFFFFFFFFFFFFFF DUP2 GT ISZERO PUSH2 0xB73 JUMPI PUSH2 0xB72 PUSH2 0x834 JUMP JUMPDEST JUMPDEST PUSH2 0xB7F DUP6 DUP3 DUP7 ADD PUSH2 0x9E9 JUMP JUMPDEST SWAP3 POP SWAP3 POP POP SWAP3 POP SWAP3 SWAP1 POP JUMP JUMPDEST PUSH32 0x4E487B7100000000000000000000000000000000000000000000000000000000 PUSH1 0x0 MSTORE PUSH1 0x11 PUSH1 0x4 MSTORE PUSH1 0x24 PUSH1 0x0 REVERT JUMPDEST PUSH1 0x0 PUSH2 0xBC5 DUP3 PUSH2 0x8C4 JUMP JUMPDEST SWAP2 POP PUSH2 0xBD0 DUP4 PUSH2 0x8C4 JUMP JUMPDEST SWAP3 POP DUP2 PUSH32 0xFFFFFFFFFFFFFFFFFFFFFFFFFFFFFFFFFFFFFFFFFFFFFFFFFFFFFFFFFFFFFFFF DIV DUP4 GT DUP3 ISZERO ISZERO AND ISZERO PUSH2 0xC09 JUMPI PUSH2 0xC08 PUSH2 0xB8B JUMP JUMPDEST JUMPDEST DUP3 DUP3 MUL SWAP1 POP SWAP3 SWAP2 POP POP JUMP JUMPDEST PUSH1 0x0 DUP3 DUP3 MSTORE PUSH1 0x20 DUP3 ADD SWAP1 POP SWAP3 SWAP2 POP POP JUMP JUMPDEST PUSH32 0x4B6F20686F70206C650000000000000000000000000000000000000000000000 PUSH1 0x0 DUP3 ADD MSTORE POP JUMP JUMPDEST PUSH1 0x0 PUSH2 0xC5B PUSH1 0x9 DUP4 PUSH2 0xC14 JUMP JUMPDEST SWAP2 POP PUSH2 0xC66 DUP3 PUSH2 0xC25 JUMP JUMPDEST PUSH1 0x20 DUP3 ADD SWAP1 POP SWAP2 SWAP1 POP JUMP JUMPDEST PUSH1 0x0 PUSH1 0x20 DUP3 ADD SWAP1 POP DUP2 DUP2 SUB PUSH1 0x0 DUP4 ADD MSTORE PUSH2 0xC8A DUP2 PUSH2 0xC4E JUMP JUMPDEST SWAP1 POP SWAP2 SWAP1 POP JUMP JUMPDEST PUSH32 0x4E487B7100000000000000000000000000000000000000000000000000000000 PUSH1 0x0 MSTORE PUSH1 0x32 PUSH1 0x4 MSTORE PUSH1 0x24 PUSH1 0x0 REVERT JUMPDEST PUSH1 0x0 PUSH1 0x20 DUP3 DUP5 SUB SLT ISZERO PUSH2 0xCD6 JUMPI PUSH2 0xCD5 PUSH2 0x82F JUMP JUMPDEST JUMPDEST PUSH1 0x0 PUSH2 0xCE4 DUP5 DUP3 DUP6 ADD PUSH2 0xAE9 JUMP JUMPDEST SWAP2 POP POP SWAP3 SWAP2 POP POP JUMP JUMPDEST PUSH1 0x0 PUSH2 0xCF8 DUP3 PUSH2 0x8C4 JUMP JUMPDEST SWAP2 POP PUSH32 0xFFFFFFFFFFFFFFFFFFFFFFFFFFFFFFFFFFFFFFFFFFFFFFFFFFFFFFFFFFFFFFFF DUP3 SUB PUSH2 0xD2A JUMPI PUSH2 0xD29 PUSH2 0xB8B JUMP JUMPDEST JUMPDEST PUSH1 0x1 DUP3 ADD SWAP1 POP SWAP2 SWAP1 POP JUMP JUMPDEST PUSH1 0x0 PUSH2 0xD40 DUP3 PUSH2 0x8C4 JUMP JUMPDEST SWAP2 POP PUSH2 0xD4B DUP4 PUSH2 0x8C4 JUMP JUMPDEST SWAP3 POP DUP3 PUSH32 0xFFFFFFFFFFFFFFFFFFFFFFFFFFFFFFFFFFFFFFFFFFFFFFFFFFFFFFFFFFFFFFFF SUB DUP3 GT ISZERO PUSH2 0xD80 JUMPI PUSH2 0xD7F PUSH2 0xB8B JUMP JUMPDEST JUMPDEST DUP3 DUP3 ADD SWAP1 POP SWAP3 SWAP2 POP POP JUMP JUMPDEST PUSH1 0x0 PUSH2 0xD96 DUP3 PUSH2 0x8C4 JUMP JUMPDEST SWAP2 POP PUSH2 0xDA1 DUP4 PUSH2 0x8C4 JUMP JUMPDEST SWAP3 POP DUP3 DUP3 LT ISZERO PUSH2 0xDB4 JUMPI PUSH2 0xDB3 PUSH2 0xB8B JUMP JUMPDEST JUMPDEST DUP3 DUP3 SUB SWAP1 POP SWAP3 SWAP2 POP POP JUMP INVALID LOG2 PUSH5 0x6970667358 0x22 SLT KECCAK256 0x4E PUSH25 0x2D45464B8CBCCAA83C32115F065FA4753601AC7B33F663E3C8 DUP1 ISZERO DUP15 0xC4 SHL PUSH5 0x736F6C6343 STOP ADDMOD 0xD STOP CALLER "
				},
				"gasEstimates": {
					"creation": {
						"codeDepositCost": "714600",
						"executionCost": "747",
						"totalCost": "715347"
					},
					"external": {
						"": "174",
						"balances(address)": "2837",
						"getBalanceAccount()": "2570",
						"getBalanceContract()": "339",
						"getSum(uint256[])": "infinite",
						"sendEth()": "infinite",
						"transferDiffETH(address[],uint256[])": "infinite",
						"transferETH(address,uint256)": "infinite",
						"transferFixedETH(address[],uint256)": "infinite"
					}
				},
				"methodIdentifiers": {
					"balances(address)": "27e235e3",
					"getBalanceAccount()": "abf038d0",
					"getBalanceContract()": "66bd78fd",
					"getSum(uint256[])": "ccb8c1e0",
					"sendEth()": "06e99fef",
					"transferDiffETH(address[],uint256[])": "661978ed",
					"transferETH(address,uint256)": "7b1a4909",
					"transferFixedETH(address[],uint256)": "4e6e9ee1"
				}
			},
			"storageLayout": {
				"storage": [
					{
						"astId": 321,
						"contract": "multi-send-eth.sol:MultiSendETH",
						"label": "balances",
						"offset": 0,
						"slot": "0",
						"type": "t_mapping(t_address,t_uint256)"
					}
				],
				"types": {
					"t_address": {
						"encoding": "inplace",
						"label": "address",
						"numberOfBytes": "20"
					},
					"t_mapping(t_address,t_uint256)": {
						"encoding": "mapping",
						"key": "t_address",
						"label": "mapping(address => uint256)",
						"numberOfBytes": "32",
						"value": "t_uint256"
					},
					"t_uint256": {
						"encoding": "inplace",
						"label": "uint256",
						"numberOfBytes": "32"
					}
				}
			},
			"userdoc": {
				"kind": "user",
				"methods": {},
				"version": 1
			}
		}
	}
}